{
  "_format": "hh-sol-artifact-1",
  "contractName": "NFT",
  "sourceName": "contracts/NFT.sol",
  "abi": [
    {
      "inputs": [],
      "stateMutability": "nonpayable",
      "type": "constructor"
    },
    {
      "anonymous": false,
      "inputs": [
        {
          "indexed": true,
          "internalType": "address",
          "name": "owner",
          "type": "address"
        },
        {
          "indexed": true,
          "internalType": "address",
          "name": "approved",
          "type": "address"
        },
        {
          "indexed": true,
          "internalType": "uint256",
          "name": "tokenId",
          "type": "uint256"
        }
      ],
      "name": "Approval",
      "type": "event"
    },
    {
      "anonymous": false,
      "inputs": [
        {
          "indexed": true,
          "internalType": "address",
          "name": "owner",
          "type": "address"
        },
        {
          "indexed": true,
          "internalType": "address",
          "name": "operator",
          "type": "address"
        },
        {
          "indexed": false,
          "internalType": "bool",
          "name": "approved",
          "type": "bool"
        }
      ],
      "name": "ApprovalForAll",
      "type": "event"
    },
    {
      "anonymous": false,
      "inputs": [
        {
          "indexed": true,
          "internalType": "address",
          "name": "previousOwner",
          "type": "address"
        },
        {
          "indexed": true,
          "internalType": "address",
          "name": "newOwner",
          "type": "address"
        }
      ],
      "name": "OwnershipTransferred",
      "type": "event"
    },
    {
      "anonymous": false,
      "inputs": [
        {
          "indexed": true,
          "internalType": "address",
          "name": "from",
          "type": "address"
        },
        {
          "indexed": true,
          "internalType": "address",
          "name": "to",
          "type": "address"
        },
        {
          "indexed": true,
          "internalType": "uint256",
          "name": "tokenId",
          "type": "uint256"
        }
      ],
      "name": "Transfer",
      "type": "event"
    },
    {
      "inputs": [
        {
          "internalType": "address",
          "name": "to",
          "type": "address"
        },
        {
          "internalType": "uint256",
          "name": "tokenId",
          "type": "uint256"
        }
      ],
      "name": "approve",
      "outputs": [],
      "stateMutability": "nonpayable",
      "type": "function"
    },
    {
      "inputs": [
        {
          "internalType": "address",
          "name": "owner",
          "type": "address"
        }
      ],
      "name": "balanceOf",
      "outputs": [
        {
          "internalType": "uint256",
          "name": "",
          "type": "uint256"
        }
      ],
      "stateMutability": "view",
      "type": "function"
    },
    {
      "inputs": [],
      "name": "createRing",
      "outputs": [],
      "stateMutability": "nonpayable",
      "type": "function"
    },
    {
      "inputs": [
        {
          "internalType": "uint256",
          "name": "tokenId",
          "type": "uint256"
        }
      ],
      "name": "getApproved",
      "outputs": [
        {
          "internalType": "address",
          "name": "",
          "type": "address"
        }
      ],
      "stateMutability": "view",
      "type": "function"
    },
    {
      "inputs": [
        {
          "internalType": "address",
          "name": "owner",
          "type": "address"
        },
        {
          "internalType": "address",
          "name": "operator",
          "type": "address"
        }
      ],
      "name": "isApprovedForAll",
      "outputs": [
        {
          "internalType": "bool",
          "name": "",
          "type": "bool"
        }
      ],
      "stateMutability": "view",
      "type": "function"
    },
    {
      "inputs": [],
      "name": "maxSupply",
      "outputs": [
        {
          "internalType": "uint256",
          "name": "",
          "type": "uint256"
        }
      ],
      "stateMutability": "view",
      "type": "function"
    },
    {
      "inputs": [],
      "name": "name",
      "outputs": [
        {
          "internalType": "string",
          "name": "",
          "type": "string"
        }
      ],
      "stateMutability": "view",
      "type": "function"
    },
    {
      "inputs": [],
      "name": "owner",
      "outputs": [
        {
          "internalType": "address",
          "name": "",
          "type": "address"
        }
      ],
      "stateMutability": "view",
      "type": "function"
    },
    {
      "inputs": [
        {
          "internalType": "uint256",
          "name": "tokenId",
          "type": "uint256"
        }
      ],
      "name": "ownerOf",
      "outputs": [
        {
          "internalType": "address",
          "name": "",
          "type": "address"
        }
      ],
      "stateMutability": "view",
      "type": "function"
    },
    {
      "inputs": [],
      "name": "renounceOwnership",
      "outputs": [],
      "stateMutability": "nonpayable",
      "type": "function"
    },
    {
      "inputs": [
        {
          "internalType": "address",
          "name": "from",
          "type": "address"
        },
        {
          "internalType": "address",
          "name": "to",
          "type": "address"
        },
        {
          "internalType": "uint256",
          "name": "tokenId",
          "type": "uint256"
        }
      ],
      "name": "safeTransferFrom",
      "outputs": [],
      "stateMutability": "nonpayable",
      "type": "function"
    },
    {
      "inputs": [
        {
          "internalType": "address",
          "name": "from",
          "type": "address"
        },
        {
          "internalType": "address",
          "name": "to",
          "type": "address"
        },
        {
          "internalType": "uint256",
          "name": "tokenId",
          "type": "uint256"
        },
        {
          "internalType": "bytes",
          "name": "_data",
          "type": "bytes"
        }
      ],
      "name": "safeTransferFrom",
      "outputs": [],
      "stateMutability": "nonpayable",
      "type": "function"
    },
    {
      "inputs": [
        {
          "internalType": "address",
          "name": "operator",
          "type": "address"
        },
        {
          "internalType": "bool",
          "name": "approved",
          "type": "bool"
        }
      ],
      "name": "setApprovalForAll",
      "outputs": [],
      "stateMutability": "nonpayable",
      "type": "function"
    },
    {
      "inputs": [
        {
          "internalType": "bytes4",
          "name": "interfaceId",
          "type": "bytes4"
        }
      ],
      "name": "supportsInterface",
      "outputs": [
        {
          "internalType": "bool",
          "name": "",
          "type": "bool"
        }
      ],
      "stateMutability": "view",
      "type": "function"
    },
    {
      "inputs": [],
      "name": "symbol",
      "outputs": [
        {
          "internalType": "string",
          "name": "",
          "type": "string"
        }
      ],
      "stateMutability": "view",
      "type": "function"
    },
    {
      "inputs": [
        {
          "internalType": "uint256",
          "name": "index",
          "type": "uint256"
        }
      ],
      "name": "tokenByIndex",
      "outputs": [
        {
          "internalType": "uint256",
          "name": "",
          "type": "uint256"
        }
      ],
      "stateMutability": "view",
      "type": "function"
    },
    {
      "inputs": [
        {
          "internalType": "address",
          "name": "owner",
          "type": "address"
        },
        {
          "internalType": "uint256",
          "name": "index",
          "type": "uint256"
        }
      ],
      "name": "tokenOfOwnerByIndex",
      "outputs": [
        {
          "internalType": "uint256",
          "name": "",
          "type": "uint256"
        }
      ],
      "stateMutability": "view",
      "type": "function"
    },
    {
      "inputs": [
        {
          "internalType": "uint256",
          "name": "tokenId",
          "type": "uint256"
        }
      ],
      "name": "tokenURI",
      "outputs": [
        {
          "internalType": "string",
          "name": "",
          "type": "string"
        }
      ],
      "stateMutability": "view",
      "type": "function"
    },
    {
      "inputs": [],
      "name": "totalSupply",
      "outputs": [
        {
          "internalType": "uint256",
          "name": "",
          "type": "uint256"
        }
      ],
      "stateMutability": "view",
      "type": "function"
    },
    {
      "inputs": [
        {
          "internalType": "address",
          "name": "from",
          "type": "address"
        },
        {
          "internalType": "address",
          "name": "to",
          "type": "address"
        },
        {
          "internalType": "uint256",
          "name": "tokenId",
          "type": "uint256"
        }
      ],
      "name": "transferFrom",
      "outputs": [],
      "stateMutability": "nonpayable",
      "type": "function"
    },
    {
      "inputs": [
        {
          "internalType": "address",
          "name": "newOwner",
          "type": "address"
        }
      ],
      "name": "transferOwnership",
      "outputs": [],
      "stateMutability": "nonpayable",
      "type": "function"
    }
  ],
  "bytecode": "0x60806040523480156200001157600080fd5b506040518060400160405280600781526020017f4f6e6552696e67000000000000000000000000000000000000000000000000008152506040518060400160405280600381526020017f4f4e450000000000000000000000000000000000000000000000000000000000815250816000908051906020019062000096929190620001a6565b508060019080519060200190620000af929190620001a6565b505050620000d2620000c6620000d860201b60201c565b620000e060201b60201c565b620002bb565b600033905090565b6000600a60009054906101000a900473ffffffffffffffffffffffffffffffffffffffff16905081600a60006101000a81548173ffffffffffffffffffffffffffffffffffffffff021916908373ffffffffffffffffffffffffffffffffffffffff1602179055508173ffffffffffffffffffffffffffffffffffffffff168173ffffffffffffffffffffffffffffffffffffffff167f8be0079c531659141344cd1fd0a4f28419497f9722a3daafe3b4186f6b6457e060405160405180910390a35050565b828054620001b49062000256565b90600052602060002090601f016020900481019282620001d8576000855562000224565b82601f10620001f357805160ff191683800117855562000224565b8280016001018555821562000224579182015b828111156200022357825182559160200191906001019062000206565b5b50905062000233919062000237565b5090565b5b808211156200025257600081600090555060010162000238565b5090565b600060028204905060018216806200026f57607f821691505b602082108114156200028657620002856200028c565b5b50919050565b7f4e487b7100000000000000000000000000000000000000000000000000000000600052602260045260246000fd5b6133f980620002cb6000396000f3fe608060405234801561001057600080fd5b50600436106101375760003560e01c80636352211e116100b8578063a22cb4651161007c578063a22cb4651461033c578063b88d4fde14610358578063c87b56dd14610374578063d5abeb01146103a4578063e985e9c5146103c2578063f2fde38b146103f257610137565b80636352211e1461029657806370a08231146102c6578063715018a6146102f65780638da5cb5b1461030057806395d89b411461031e57610137565b80631f63b623116100ff5780631f63b623146101f457806323b872dd146101fe5780632f745c591461021a57806342842e0e1461024a5780634f6ccce71461026657610137565b806301ffc9a71461013c57806306fdde031461016c578063081812fc1461018a578063095ea7b3146101ba57806318160ddd146101d6575b600080fd5b610156600480360381019061015191906122ef565b61040e565b604051610163919061276a565b60405180910390f35b610174610488565b6040516101819190612785565b60405180910390f35b6101a4600480360381019061019f9190612349565b61051a565b6040516101b19190612703565b60405180910390f35b6101d460048036038101906101cf91906122af565b61059f565b005b6101de6106b7565b6040516101eb9190612a07565b60405180910390f35b6101fc6106c4565b005b61021860048036038101906102139190612199565b610797565b005b610234600480360381019061022f91906122af565b6107f7565b6040516102419190612a07565b60405180910390f35b610264600480360381019061025f9190612199565b61089c565b005b610280600480360381019061027b9190612349565b6108bc565b60405161028d9190612a07565b60405180910390f35b6102b060048036038101906102ab9190612349565b61092d565b6040516102bd9190612703565b60405180910390f35b6102e060048036038101906102db919061212c565b6109df565b6040516102ed9190612a07565b60405180910390f35b6102fe610a97565b005b610308610b1f565b6040516103159190612703565b60405180910390f35b610326610b49565b6040516103339190612785565b60405180910390f35b6103566004803603810190610351919061226f565b610bdb565b005b610372600480360381019061036d91906121ec565b610d5c565b005b61038e60048036038101906103899190612349565b610dbe565b60405161039b9190612785565b60405180910390f35b6103ac610e65565b6040516103b99190612a07565b60405180910390f35b6103dc60048036038101906103d79190612159565b610e6a565b6040516103e9919061276a565b60405180910390f35b61040c6004803603810190610407919061212c565b610efe565b005b60007f780e9d63000000000000000000000000000000000000000000000000000000007bffffffffffffffffffffffffffffffffffffffffffffffffffffffff1916827bffffffffffffffffffffffffffffffffffffffffffffffffffffffff19161480610481575061048082610ff6565b5b9050919050565b60606000805461049790612c2c565b80601f01602080910402602001604051908101604052809291908181526020018280546104c390612c2c565b80156105105780601f106104e557610100808354040283529160200191610510565b820191906000526020600020905b8154815290600101906020018083116104f357829003601f168201915b5050505050905090565b6000610525826110d8565b610564576040517f08c379a000000000000000000000000000000000000000000000000000000000815260040161055b90612927565b60405180910390fd5b6004600083815260200190815260200160002060009054906101000a900473ffffffffffffffffffffffffffffffffffffffff169050919050565b60006105aa8261092d565b90508073ffffffffffffffffffffffffffffffffffffffff168373ffffffffffffffffffffffffffffffffffffffff16141561061b576040517f08c379a0000000000000000000000000000000000000000000000000000000008152600401610612906129a7565b60405180910390fd5b8073ffffffffffffffffffffffffffffffffffffffff1661063a611144565b73ffffffffffffffffffffffffffffffffffffffff161480610669575061066881610663611144565b610e6a565b5b6106a8576040517f08c379a000000000000000000000000000000000000000000000000000000000815260040161069f90612887565b60405180910390fd5b6106b2838361114c565b505050565b6000600880549050905090565b6106cc611144565b73ffffffffffffffffffffffffffffffffffffffff166106ea610b1f565b73ffffffffffffffffffffffffffffffffffffffff1614610740576040517f08c379a000000000000000000000000000000000000000000000000000000000815260040161073790612947565b60405180910390fd5b600161074a6106b7565b1061078a576040517f08c379a000000000000000000000000000000000000000000000000000000000815260040161078190612907565b60405180910390fd5b610795336000611205565b565b6107a86107a2611144565b82611223565b6107e7576040517f08c379a00000000000000000000000000000000000000000000000000000000081526004016107de906129c7565b60405180910390fd5b6107f2838383611301565b505050565b6000610802836109df565b8210610843576040517f08c379a000000000000000000000000000000000000000000000000000000000815260040161083a906127a7565b60405180910390fd5b600660008473ffffffffffffffffffffffffffffffffffffffff1673ffffffffffffffffffffffffffffffffffffffff168152602001908152602001600020600083815260200190815260200160002054905092915050565b6108b783838360405180602001604052806000815250610d5c565b505050565b60006108c66106b7565b8210610907576040517f08c379a00000000000000000000000000000000000000000000000000000000081526004016108fe906129e7565b60405180910390fd5b6008828154811061091b5761091a612dc5565b5b90600052602060002001549050919050565b6000806002600084815260200190815260200160002060009054906101000a900473ffffffffffffffffffffffffffffffffffffffff169050600073ffffffffffffffffffffffffffffffffffffffff168173ffffffffffffffffffffffffffffffffffffffff1614156109d6576040517f08c379a00000000000000000000000000000000000000000000000000000000081526004016109cd906128c7565b60405180910390fd5b80915050919050565b60008073ffffffffffffffffffffffffffffffffffffffff168273ffffffffffffffffffffffffffffffffffffffff161415610a50576040517f08c379a0000000000000000000000000000000000000000000000000000000008152600401610a47906128a7565b60405180910390fd5b600360008373ffffffffffffffffffffffffffffffffffffffff1673ffffffffffffffffffffffffffffffffffffffff168152602001908152602001600020549050919050565b610a9f611144565b73ffffffffffffffffffffffffffffffffffffffff16610abd610b1f565b73ffffffffffffffffffffffffffffffffffffffff1614610b13576040517f08c379a0000000000000000000000000000000000000000000000000000000008152600401610b0a90612947565b60405180910390fd5b610b1d600061155d565b565b6000600a60009054906101000a900473ffffffffffffffffffffffffffffffffffffffff16905090565b606060018054610b5890612c2c565b80601f0160208091040260200160405190810160405280929190818152602001828054610b8490612c2c565b8015610bd15780601f10610ba657610100808354040283529160200191610bd1565b820191906000526020600020905b815481529060010190602001808311610bb457829003601f168201915b5050505050905090565b610be3611144565b73ffffffffffffffffffffffffffffffffffffffff168273ffffffffffffffffffffffffffffffffffffffff161415610c51576040517f08c379a0000000000000000000000000000000000000000000000000000000008152600401610c4890612847565b60405180910390fd5b8060056000610c5e611144565b73ffffffffffffffffffffffffffffffffffffffff1673ffffffffffffffffffffffffffffffffffffffff16815260200190815260200160002060008473ffffffffffffffffffffffffffffffffffffffff1673ffffffffffffffffffffffffffffffffffffffff16815260200190815260200160002060006101000a81548160ff0219169083151502179055508173ffffffffffffffffffffffffffffffffffffffff16610d0b611144565b73ffffffffffffffffffffffffffffffffffffffff167f17307eab39ab6107e8899845ad3d59bd9653f200f220920489ca2b5937696c3183604051610d50919061276a565b60405180910390a35050565b610d6d610d67611144565b83611223565b610dac576040517f08c379a0000000000000000000000000000000000000000000000000000000008152600401610da3906129c7565b60405180910390fd5b610db884848484611623565b50505050565b6060610dc9826110d8565b610e08576040517f08c379a0000000000000000000000000000000000000000000000000000000008152600401610dff90612987565b60405180910390fd5b6000610e1261167f565b90506000815111610e325760405180602001604052806000815250610e5d565b80610e3c84611696565b604051602001610e4d9291906126df565b6040516020818303038152906040525b915050919050565b600181565b6000600560008473ffffffffffffffffffffffffffffffffffffffff1673ffffffffffffffffffffffffffffffffffffffff16815260200190815260200160002060008373ffffffffffffffffffffffffffffffffffffffff1673ffffffffffffffffffffffffffffffffffffffff16815260200190815260200160002060009054906101000a900460ff16905092915050565b610f06611144565b73ffffffffffffffffffffffffffffffffffffffff16610f24610b1f565b73ffffffffffffffffffffffffffffffffffffffff1614610f7a576040517f08c379a0000000000000000000000000000000000000000000000000000000008152600401610f7190612947565b60405180910390fd5b600073ffffffffffffffffffffffffffffffffffffffff168173ffffffffffffffffffffffffffffffffffffffff161415610fea576040517f08c379a0000000000000000000000000000000000000000000000000000000008152600401610fe1906127e7565b60405180910390fd5b610ff38161155d565b50565b60007f80ac58cd000000000000000000000000000000000000000000000000000000007bffffffffffffffffffffffffffffffffffffffffffffffffffffffff1916827bffffffffffffffffffffffffffffffffffffffffffffffffffffffff191614806110c157507f5b5e139f000000000000000000000000000000000000000000000000000000007bffffffffffffffffffffffffffffffffffffffffffffffffffffffff1916827bffffffffffffffffffffffffffffffffffffffffffffffffffffffff1916145b806110d157506110d0826117f7565b5b9050919050565b60008073ffffffffffffffffffffffffffffffffffffffff166002600084815260200190815260200160002060009054906101000a900473ffffffffffffffffffffffffffffffffffffffff1673ffffffffffffffffffffffffffffffffffffffff1614159050919050565b600033905090565b816004600083815260200190815260200160002060006101000a81548173ffffffffffffffffffffffffffffffffffffffff021916908373ffffffffffffffffffffffffffffffffffffffff160217905550808273ffffffffffffffffffffffffffffffffffffffff166111bf8361092d565b73ffffffffffffffffffffffffffffffffffffffff167f8c5be1e5ebec7d5bd14f71427d1e84f3dd0314c0f7b2291e5b200ac8c7c3b92560405160405180910390a45050565b61121f828260405180602001604052806000815250611861565b5050565b600061122e826110d8565b61126d576040517f08c379a000000000000000000000000000000000000000000000000000000000815260040161126490612867565b60405180910390fd5b60006112788361092d565b90508073ffffffffffffffffffffffffffffffffffffffff168473ffffffffffffffffffffffffffffffffffffffff1614806112e757508373ffffffffffffffffffffffffffffffffffffffff166112cf8461051a565b73ffffffffffffffffffffffffffffffffffffffff16145b806112f857506112f78185610e6a565b5b91505092915050565b8273ffffffffffffffffffffffffffffffffffffffff166113218261092d565b73ffffffffffffffffffffffffffffffffffffffff1614611377576040517f08c379a000000000000000000000000000000000000000000000000000000000815260040161136e90612967565b60405180910390fd5b600073ffffffffffffffffffffffffffffffffffffffff168273ffffffffffffffffffffffffffffffffffffffff1614156113e7576040517f08c379a00000000000000000000000000000000000000000000000000000000081526004016113de90612827565b60405180910390fd5b6113f28383836118bc565b6113fd60008261114c565b6001600360008573ffffffffffffffffffffffffffffffffffffffff1673ffffffffffffffffffffffffffffffffffffffff168152602001908152602001600020600082825461144d9190612b42565b925050819055506001600360008473ffffffffffffffffffffffffffffffffffffffff1673ffffffffffffffffffffffffffffffffffffffff16815260200190815260200160002060008282546114a49190612abb565b92505081905550816002600083815260200190815260200160002060006101000a81548173ffffffffffffffffffffffffffffffffffffffff021916908373ffffffffffffffffffffffffffffffffffffffff160217905550808273ffffffffffffffffffffffffffffffffffffffff168473ffffffffffffffffffffffffffffffffffffffff167fddf252ad1be2c89b69c2b068fc378daa952ba7f163c4a11628f55a4df523b3ef60405160405180910390a4505050565b6000600a60009054906101000a900473ffffffffffffffffffffffffffffffffffffffff16905081600a60006101000a81548173ffffffffffffffffffffffffffffffffffffffff021916908373ffffffffffffffffffffffffffffffffffffffff1602179055508173ffffffffffffffffffffffffffffffffffffffff168173ffffffffffffffffffffffffffffffffffffffff167f8be0079c531659141344cd1fd0a4f28419497f9722a3daafe3b4186f6b6457e060405160405180910390a35050565b61162e848484611301565b61163a848484846119d0565b611679576040517f08c379a0000000000000000000000000000000000000000000000000000000008152600401611670906127c7565b60405180910390fd5b50505050565b606060405180602001604052806000815250905090565b606060008214156116de576040518060400160405280600181526020017f300000000000000000000000000000000000000000000000000000000000000081525090506117f2565b600082905060005b600082146117105780806116f990612c8f565b915050600a826117099190612b11565b91506116e6565b60008167ffffffffffffffff81111561172c5761172b612df4565b5b6040519080825280601f01601f19166020018201604052801561175e5781602001600182028036833780820191505090505b5090505b600085146117eb576001826117779190612b42565b9150600a856117869190612cd8565b60306117929190612abb565b60f81b8183815181106117a8576117a7612dc5565b5b60200101907effffffffffffffffffffffffffffffffffffffffffffffffffffffffffffff1916908160001a905350600a856117e49190612b11565b9450611762565b8093505050505b919050565b60007f01ffc9a7000000000000000000000000000000000000000000000000000000007bffffffffffffffffffffffffffffffffffffffffffffffffffffffff1916827bffffffffffffffffffffffffffffffffffffffffffffffffffffffff1916149050919050565b61186b8383611b67565b61187860008484846119d0565b6118b7576040517f08c379a00000000000000000000000000000000000000000000000000000000081526004016118ae906127c7565b60405180910390fd5b505050565b6118c7838383611d35565b600073ffffffffffffffffffffffffffffffffffffffff168373ffffffffffffffffffffffffffffffffffffffff16141561190a5761190581611d3a565b611949565b8173ffffffffffffffffffffffffffffffffffffffff168373ffffffffffffffffffffffffffffffffffffffff1614611948576119478382611d83565b5b5b600073ffffffffffffffffffffffffffffffffffffffff168273ffffffffffffffffffffffffffffffffffffffff16141561198c5761198781611ef0565b6119cb565b8273ffffffffffffffffffffffffffffffffffffffff168273ffffffffffffffffffffffffffffffffffffffff16146119ca576119c98282611fc1565b5b5b505050565b60006119f18473ffffffffffffffffffffffffffffffffffffffff16612040565b15611b5a578373ffffffffffffffffffffffffffffffffffffffff1663150b7a02611a1a611144565b8786866040518563ffffffff1660e01b8152600401611a3c949392919061271e565b602060405180830381600087803b158015611a5657600080fd5b505af1925050508015611a8757506040513d601f19601f82011682018060405250810190611a84919061231c565b60015b611b0a573d8060008114611ab7576040519150601f19603f3d011682016040523d82523d6000602084013e611abc565b606091505b50600081511415611b02576040517f08c379a0000000000000000000000000000000000000000000000000000000008152600401611af9906127c7565b60405180910390fd5b805181602001fd5b63150b7a0260e01b7bffffffffffffffffffffffffffffffffffffffffffffffffffffffff1916817bffffffffffffffffffffffffffffffffffffffffffffffffffffffff191614915050611b5f565b600190505b949350505050565b600073ffffffffffffffffffffffffffffffffffffffff168273ffffffffffffffffffffffffffffffffffffffff161415611bd7576040517f08c379a0000000000000000000000000000000000000000000000000000000008152600401611bce906128e7565b60405180910390fd5b611be0816110d8565b15611c20576040517f08c379a0000000000000000000000000000000000000000000000000000000008152600401611c1790612807565b60405180910390fd5b611c2c600083836118bc565b6001600360008473ffffffffffffffffffffffffffffffffffffffff1673ffffffffffffffffffffffffffffffffffffffff1681526020019081526020016000206000828254611c7c9190612abb565b92505081905550816002600083815260200190815260200160002060006101000a81548173ffffffffffffffffffffffffffffffffffffffff021916908373ffffffffffffffffffffffffffffffffffffffff160217905550808273ffffffffffffffffffffffffffffffffffffffff16600073ffffffffffffffffffffffffffffffffffffffff167fddf252ad1be2c89b69c2b068fc378daa952ba7f163c4a11628f55a4df523b3ef60405160405180910390a45050565b505050565b6008805490506009600083815260200190815260200160002081905550600881908060018154018082558091505060019003906000526020600020016000909190919091505550565b60006001611d90846109df565b611d9a9190612b42565b9050600060076000848152602001908152602001600020549050818114611e7f576000600660008673ffffffffffffffffffffffffffffffffffffffff1673ffffffffffffffffffffffffffffffffffffffff168152602001908152602001600020600084815260200190815260200160002054905080600660008773ffffffffffffffffffffffffffffffffffffffff1673ffffffffffffffffffffffffffffffffffffffff168152602001908152602001600020600084815260200190815260200160002081905550816007600083815260200190815260200160002081905550505b6007600084815260200190815260200160002060009055600660008573ffffffffffffffffffffffffffffffffffffffff1673ffffffffffffffffffffffffffffffffffffffff16815260200190815260200160002060008381526020019081526020016000206000905550505050565b60006001600880549050611f049190612b42565b9050600060096000848152602001908152602001600020549050600060088381548110611f3457611f33612dc5565b5b906000526020600020015490508060088381548110611f5657611f55612dc5565b5b906000526020600020018190555081600960008381526020019081526020016000208190555060096000858152602001908152602001600020600090556008805480611fa557611fa4612d96565b5b6001900381819060005260206000200160009055905550505050565b6000611fcc836109df565b905081600660008573ffffffffffffffffffffffffffffffffffffffff1673ffffffffffffffffffffffffffffffffffffffff168152602001908152602001600020600083815260200190815260200160002081905550806007600084815260200190815260200160002081905550505050565b600080823b905060008111915050919050565b600061206661206184612a47565b612a22565b90508281526020810184848401111561208257612081612e28565b5b61208d848285612bea565b509392505050565b6000813590506120a481613367565b92915050565b6000813590506120b98161337e565b92915050565b6000813590506120ce81613395565b92915050565b6000815190506120e381613395565b92915050565b600082601f8301126120fe576120fd612e23565b5b813561210e848260208601612053565b91505092915050565b600081359050612126816133ac565b92915050565b60006020828403121561214257612141612e32565b5b600061215084828501612095565b91505092915050565b600080604083850312156121705761216f612e32565b5b600061217e85828601612095565b925050602061218f85828601612095565b9150509250929050565b6000806000606084860312156121b2576121b1612e32565b5b60006121c086828701612095565b93505060206121d186828701612095565b92505060406121e286828701612117565b9150509250925092565b6000806000806080858703121561220657612205612e32565b5b600061221487828801612095565b945050602061222587828801612095565b935050604061223687828801612117565b925050606085013567ffffffffffffffff81111561225757612256612e2d565b5b612263878288016120e9565b91505092959194509250565b6000806040838503121561228657612285612e32565b5b600061229485828601612095565b92505060206122a5858286016120aa565b9150509250929050565b600080604083850312156122c6576122c5612e32565b5b60006122d485828601612095565b92505060206122e585828601612117565b9150509250929050565b60006020828403121561230557612304612e32565b5b6000612313848285016120bf565b91505092915050565b60006020828403121561233257612331612e32565b5b6000612340848285016120d4565b91505092915050565b60006020828403121561235f5761235e612e32565b5b600061236d84828501612117565b91505092915050565b61237f81612b76565b82525050565b61238e81612b88565b82525050565b600061239f82612a78565b6123a98185612a8e565b93506123b9818560208601612bf9565b6123c281612e37565b840191505092915050565b60006123d882612a83565b6123e28185612a9f565b93506123f2818560208601612bf9565b6123fb81612e37565b840191505092915050565b600061241182612a83565b61241b8185612ab0565b935061242b818560208601612bf9565b80840191505092915050565b6000612444602b83612a9f565b915061244f82612e48565b604082019050919050565b6000612467603283612a9f565b915061247282612e97565b604082019050919050565b600061248a602683612a9f565b915061249582612ee6565b604082019050919050565b60006124ad601c83612a9f565b91506124b882612f35565b602082019050919050565b60006124d0602483612a9f565b91506124db82612f5e565b604082019050919050565b60006124f3601983612a9f565b91506124fe82612fad565b602082019050919050565b6000612516602c83612a9f565b915061252182612fd6565b604082019050919050565b6000612539603883612a9f565b915061254482613025565b604082019050919050565b600061255c602a83612a9f565b915061256782613074565b604082019050919050565b600061257f602983612a9f565b915061258a826130c3565b604082019050919050565b60006125a2602083612a9f565b91506125ad82613112565b602082019050919050565b60006125c5601383612a9f565b91506125d08261313b565b602082019050919050565b60006125e8602c83612a9f565b91506125f382613164565b604082019050919050565b600061260b602083612a9f565b9150612616826131b3565b602082019050919050565b600061262e602983612a9f565b9150612639826131dc565b604082019050919050565b6000612651602f83612a9f565b915061265c8261322b565b604082019050919050565b6000612674602183612a9f565b915061267f8261327a565b604082019050919050565b6000612697603183612a9f565b91506126a2826132c9565b604082019050919050565b60006126ba602c83612a9f565b91506126c582613318565b604082019050919050565b6126d981612be0565b82525050565b60006126eb8285612406565b91506126f78284612406565b91508190509392505050565b60006020820190506127186000830184612376565b92915050565b60006080820190506127336000830187612376565b6127406020830186612376565b61274d60408301856126d0565b818103606083015261275f8184612394565b905095945050505050565b600060208201905061277f6000830184612385565b92915050565b6000602082019050818103600083015261279f81846123cd565b905092915050565b600060208201905081810360008301526127c081612437565b9050919050565b600060208201905081810360008301526127e08161245a565b9050919050565b600060208201905081810360008301526128008161247d565b9050919050565b60006020820190508181036000830152612820816124a0565b9050919050565b60006020820190508181036000830152612840816124c3565b9050919050565b60006020820190508181036000830152612860816124e6565b9050919050565b6000602082019050818103600083015261288081612509565b9050919050565b600060208201905081810360008301526128a08161252c565b9050919050565b600060208201905081810360008301526128c08161254f565b9050919050565b600060208201905081810360008301526128e081612572565b9050919050565b6000602082019050818103600083015261290081612595565b9050919050565b60006020820190508181036000830152612920816125b8565b9050919050565b60006020820190508181036000830152612940816125db565b9050919050565b60006020820190508181036000830152612960816125fe565b9050919050565b6000602082019050818103600083015261298081612621565b9050919050565b600060208201905081810360008301526129a081612644565b9050919050565b600060208201905081810360008301526129c081612667565b9050919050565b600060208201905081810360008301526129e08161268a565b9050919050565b60006020820190508181036000830152612a00816126ad565b9050919050565b6000602082019050612a1c60008301846126d0565b92915050565b6000612a2c612a3d565b9050612a388282612c5e565b919050565b6000604051905090565b600067ffffffffffffffff821115612a6257612a61612df4565b5b612a6b82612e37565b9050602081019050919050565b600081519050919050565b600081519050919050565b600082825260208201905092915050565b600082825260208201905092915050565b600081905092915050565b6000612ac682612be0565b9150612ad183612be0565b9250827fffffffffffffffffffffffffffffffffffffffffffffffffffffffffffffffff03821115612b0657612b05612d09565b5b828201905092915050565b6000612b1c82612be0565b9150612b2783612be0565b925082612b3757612b36612d38565b5b828204905092915050565b6000612b4d82612be0565b9150612b5883612be0565b925082821015612b6b57612b6a612d09565b5b828203905092915050565b6000612b8182612bc0565b9050919050565b60008115159050919050565b60007fffffffff0000000000000000000000000000000000000000000000000000000082169050919050565b600073ffffffffffffffffffffffffffffffffffffffff82169050919050565b6000819050919050565b82818337600083830152505050565b60005b83811015612c17578082015181840152602081019050612bfc565b83811115612c26576000848401525b50505050565b60006002820490506001821680612c4457607f821691505b60208210811415612c5857612c57612d67565b5b50919050565b612c6782612e37565b810181811067ffffffffffffffff82111715612c8657612c85612df4565b5b80604052505050565b6000612c9a82612be0565b91507fffffffffffffffffffffffffffffffffffffffffffffffffffffffffffffffff821415612ccd57612ccc612d09565b5b600182019050919050565b6000612ce382612be0565b9150612cee83612be0565b925082612cfe57612cfd612d38565b5b828206905092915050565b7f4e487b7100000000000000000000000000000000000000000000000000000000600052601160045260246000fd5b7f4e487b7100000000000000000000000000000000000000000000000000000000600052601260045260246000fd5b7f4e487b7100000000000000000000000000000000000000000000000000000000600052602260045260246000fd5b7f4e487b7100000000000000000000000000000000000000000000000000000000600052603160045260246000fd5b7f4e487b7100000000000000000000000000000000000000000000000000000000600052603260045260246000fd5b7f4e487b7100000000000000000000000000000000000000000000000000000000600052604160045260246000fd5b600080fd5b600080fd5b600080fd5b600080fd5b6000601f19601f8301169050919050565b7f455243373231456e756d657261626c653a206f776e657220696e646578206f7560008201527f74206f6620626f756e6473000000000000000000000000000000000000000000602082015250565b7f4552433732313a207472616e7366657220746f206e6f6e20455243373231526560008201527f63656976657220696d706c656d656e7465720000000000000000000000000000602082015250565b7f4f776e61626c653a206e6577206f776e657220697320746865207a65726f206160008201527f6464726573730000000000000000000000000000000000000000000000000000602082015250565b7f4552433732313a20746f6b656e20616c7265616479206d696e74656400000000600082015250565b7f4552433732313a207472616e7366657220746f20746865207a65726f2061646460008201527f7265737300000000000000000000000000000000000000000000000000000000602082015250565b7f4552433732313a20617070726f766520746f2063616c6c657200000000000000600082015250565b7f4552433732313a206f70657261746f7220717565727920666f72206e6f6e657860008201527f697374656e7420746f6b656e0000000000000000000000000000000000000000602082015250565b7f4552433732313a20617070726f76652063616c6c6572206973206e6f74206f7760008201527f6e6572206e6f7220617070726f76656420666f7220616c6c0000000000000000602082015250565b7f4552433732313a2062616c616e636520717565727920666f7220746865207a6560008201527f726f206164647265737300000000000000000000000000000000000000000000602082015250565b7f4552433732313a206f776e657220717565727920666f72206e6f6e657869737460008201527f656e7420746f6b656e0000000000000000000000000000000000000000000000602082015250565b7f4552433732313a206d696e7420746f20746865207a65726f2061646472657373600082015250565b7f52696e6720616c7265616479206d696e74656400000000000000000000000000600082015250565b7f4552433732313a20617070726f76656420717565727920666f72206e6f6e657860008201527f697374656e7420746f6b656e0000000000000000000000000000000000000000602082015250565b7f4f776e61626c653a2063616c6c6572206973206e6f7420746865206f776e6572600082015250565b7f4552433732313a207472616e73666572206f6620746f6b656e2074686174206960008201527f73206e6f74206f776e0000000000000000000000000000000000000000000000602082015250565b7f4552433732314d657461646174613a2055524920717565727920666f72206e6f60008201527f6e6578697374656e7420746f6b656e0000000000000000000000000000000000602082015250565b7f4552433732313a20617070726f76616c20746f2063757272656e74206f776e6560008201527f7200000000000000000000000000000000000000000000000000000000000000602082015250565b7f4552433732313a207472616e736665722063616c6c6572206973206e6f74206f60008201527f776e6572206e6f7220617070726f766564000000000000000000000000000000602082015250565b7f455243373231456e756d657261626c653a20676c6f62616c20696e646578206f60008201527f7574206f6620626f756e64730000000000000000000000000000000000000000602082015250565b61337081612b76565b811461337b57600080fd5b50565b61338781612b88565b811461339257600080fd5b50565b61339e81612b94565b81146133a957600080fd5b50565b6133b581612be0565b81146133c057600080fd5b5056fea264697066735822122084caa06f74c3e80a0b606977eb1d80b22132cdba02bae9cf4bceb14660a9d4ad64736f6c63430008070033",
  "linkReferences": {},
  "deployedLinkReferences": {}
}