{
  "_format": "hh-sol-artifact-1",
  "contractName": "NFT",
  "sourceName": "contracts/NFT.sol",
  "abi": [
    {
      "inputs": [],
      "stateMutability": "nonpayable",
      "type": "constructor"
    },
    {
      "anonymous": false,
      "inputs": [
        {
          "indexed": true,
          "internalType": "address",
          "name": "owner",
          "type": "address"
        },
        {
          "indexed": true,
          "internalType": "address",
          "name": "approved",
          "type": "address"
        },
        {
          "indexed": true,
          "internalType": "uint256",
          "name": "tokenId",
          "type": "uint256"
        }
      ],
      "name": "Approval",
      "type": "event"
    },
    {
      "anonymous": false,
      "inputs": [
        {
          "indexed": true,
          "internalType": "address",
          "name": "owner",
          "type": "address"
        },
        {
          "indexed": true,
          "internalType": "address",
          "name": "operator",
          "type": "address"
        },
        {
          "indexed": false,
          "internalType": "bool",
          "name": "approved",
          "type": "bool"
        }
      ],
      "name": "ApprovalForAll",
      "type": "event"
    },
    {
      "anonymous": false,
      "inputs": [
        {
          "indexed": true,
          "internalType": "address",
          "name": "previousOwner",
          "type": "address"
        },
        {
          "indexed": true,
          "internalType": "address",
          "name": "newOwner",
          "type": "address"
        }
      ],
      "name": "OwnershipTransferred",
      "type": "event"
    },
    {
      "anonymous": false,
      "inputs": [
        {
          "indexed": true,
          "internalType": "address",
          "name": "from",
          "type": "address"
        },
        {
          "indexed": true,
          "internalType": "address",
          "name": "to",
          "type": "address"
        },
        {
          "indexed": true,
          "internalType": "uint256",
          "name": "tokenId",
          "type": "uint256"
        }
      ],
      "name": "Transfer",
      "type": "event"
    },
    {
      "inputs": [
        {
          "internalType": "address",
          "name": "to",
          "type": "address"
        },
        {
          "internalType": "uint256",
          "name": "tokenId",
          "type": "uint256"
        }
      ],
      "name": "approve",
      "outputs": [],
      "stateMutability": "nonpayable",
      "type": "function"
    },
    {
      "inputs": [
        {
          "internalType": "address",
          "name": "owner",
          "type": "address"
        }
      ],
      "name": "balanceOf",
      "outputs": [
        {
          "internalType": "uint256",
          "name": "",
          "type": "uint256"
        }
      ],
      "stateMutability": "view",
      "type": "function"
    },
    {
      "inputs": [],
      "name": "createRing",
      "outputs": [],
      "stateMutability": "nonpayable",
      "type": "function"
    },
    {
      "inputs": [
        {
          "internalType": "uint256",
          "name": "tokenId",
          "type": "uint256"
        }
      ],
      "name": "getApproved",
      "outputs": [
        {
          "internalType": "address",
          "name": "",
          "type": "address"
        }
      ],
      "stateMutability": "view",
      "type": "function"
    },
    {
      "inputs": [
        {
          "internalType": "address",
          "name": "owner",
          "type": "address"
        },
        {
          "internalType": "address",
          "name": "operator",
          "type": "address"
        }
      ],
      "name": "isApprovedForAll",
      "outputs": [
        {
          "internalType": "bool",
          "name": "",
          "type": "bool"
        }
      ],
      "stateMutability": "view",
      "type": "function"
    },
    {
      "inputs": [],
      "name": "maxSupply",
      "outputs": [
        {
          "internalType": "uint256",
          "name": "",
          "type": "uint256"
        }
      ],
      "stateMutability": "view",
      "type": "function"
    },
    {
      "inputs": [],
      "name": "name",
      "outputs": [
        {
          "internalType": "string",
          "name": "",
          "type": "string"
        }
      ],
      "stateMutability": "view",
      "type": "function"
    },
    {
      "inputs": [],
      "name": "owner",
      "outputs": [
        {
          "internalType": "address",
          "name": "",
          "type": "address"
        }
      ],
      "stateMutability": "view",
      "type": "function"
    },
    {
      "inputs": [
        {
          "internalType": "uint256",
          "name": "tokenId",
          "type": "uint256"
        }
      ],
      "name": "ownerOf",
      "outputs": [
        {
          "internalType": "address",
          "name": "",
          "type": "address"
        }
      ],
      "stateMutability": "view",
      "type": "function"
    },
    {
      "inputs": [],
      "name": "renounceOwnership",
      "outputs": [],
      "stateMutability": "nonpayable",
      "type": "function"
    },
    {
      "inputs": [
        {
          "internalType": "address",
          "name": "from",
          "type": "address"
        },
        {
          "internalType": "address",
          "name": "to",
          "type": "address"
        },
        {
          "internalType": "uint256",
          "name": "tokenId",
          "type": "uint256"
        }
      ],
      "name": "safeTransferFrom",
      "outputs": [],
      "stateMutability": "nonpayable",
      "type": "function"
    },
    {
      "inputs": [
        {
          "internalType": "address",
          "name": "from",
          "type": "address"
        },
        {
          "internalType": "address",
          "name": "to",
          "type": "address"
        },
        {
          "internalType": "uint256",
          "name": "tokenId",
          "type": "uint256"
        },
        {
          "internalType": "bytes",
          "name": "_data",
          "type": "bytes"
        }
      ],
      "name": "safeTransferFrom",
      "outputs": [],
      "stateMutability": "nonpayable",
      "type": "function"
    },
    {
      "inputs": [
        {
          "internalType": "address",
          "name": "operator",
          "type": "address"
        },
        {
          "internalType": "bool",
          "name": "approved",
          "type": "bool"
        }
      ],
      "name": "setApprovalForAll",
      "outputs": [],
      "stateMutability": "nonpayable",
      "type": "function"
    },
    {
      "inputs": [
        {
          "internalType": "bytes4",
          "name": "interfaceId",
          "type": "bytes4"
        }
      ],
      "name": "supportsInterface",
      "outputs": [
        {
          "internalType": "bool",
          "name": "",
          "type": "bool"
        }
      ],
      "stateMutability": "view",
      "type": "function"
    },
    {
      "inputs": [],
      "name": "symbol",
      "outputs": [
        {
          "internalType": "string",
          "name": "",
          "type": "string"
        }
      ],
      "stateMutability": "view",
      "type": "function"
    },
    {
      "inputs": [
        {
          "internalType": "uint256",
          "name": "index",
          "type": "uint256"
        }
      ],
      "name": "tokenByIndex",
      "outputs": [
        {
          "internalType": "uint256",
          "name": "",
          "type": "uint256"
        }
      ],
      "stateMutability": "view",
      "type": "function"
    },
    {
      "inputs": [
        {
          "internalType": "address",
          "name": "owner",
          "type": "address"
        },
        {
          "internalType": "uint256",
          "name": "index",
          "type": "uint256"
        }
      ],
      "name": "tokenOfOwnerByIndex",
      "outputs": [
        {
          "internalType": "uint256",
          "name": "",
          "type": "uint256"
        }
      ],
      "stateMutability": "view",
      "type": "function"
    },
    {
      "inputs": [
        {
          "internalType": "uint256",
          "name": "tokenId",
          "type": "uint256"
        }
      ],
      "name": "tokenURI",
      "outputs": [
        {
          "internalType": "string",
          "name": "",
          "type": "string"
        }
      ],
      "stateMutability": "view",
      "type": "function"
    },
    {
      "inputs": [],
      "name": "totalSupply",
      "outputs": [
        {
          "internalType": "uint256",
          "name": "",
          "type": "uint256"
        }
      ],
      "stateMutability": "view",
      "type": "function"
    },
    {
      "inputs": [
        {
          "internalType": "address",
          "name": "from",
          "type": "address"
        },
        {
          "internalType": "address",
          "name": "to",
          "type": "address"
        },
        {
          "internalType": "uint256",
          "name": "tokenId",
          "type": "uint256"
        }
      ],
      "name": "transferFrom",
      "outputs": [],
      "stateMutability": "nonpayable",
      "type": "function"
    },
    {
      "inputs": [
        {
          "internalType": "address",
          "name": "newOwner",
          "type": "address"
        }
      ],
      "name": "transferOwnership",
      "outputs": [],
      "stateMutability": "nonpayable",
      "type": "function"
    }
  ],
  "bytecode": "0x60806040523480156200001157600080fd5b506040518060400160405280600781526020017f4f6e6552696e67000000000000000000000000000000000000000000000000008152506040518060400160405280600381526020017f4f4e450000000000000000000000000000000000000000000000000000000000815250816000908051906020019062000096929190620001a6565b508060019080519060200190620000af929190620001a6565b505050620000d2620000c6620000d860201b60201c565b620000e060201b60201c565b620002bb565b600033905090565b6000600a60009054906101000a900473ffffffffffffffffffffffffffffffffffffffff16905081600a60006101000a81548173ffffffffffffffffffffffffffffffffffffffff021916908373ffffffffffffffffffffffffffffffffffffffff1602179055508173ffffffffffffffffffffffffffffffffffffffff168173ffffffffffffffffffffffffffffffffffffffff167f8be0079c531659141344cd1fd0a4f28419497f9722a3daafe3b4186f6b6457e060405160405180910390a35050565b828054620001b49062000256565b90600052602060002090601f016020900481019282620001d8576000855562000224565b82601f10620001f357805160ff191683800117855562000224565b8280016001018555821562000224579182015b828111156200022357825182559160200191906001019062000206565b5b50905062000233919062000237565b5090565b5b808211156200025257600081600090555060010162000238565b5090565b600060028204905060018216806200026f57607f821691505b602082108114156200028657620002856200028c565b5b50919050565b7f4e487b7100000000000000000000000000000000000000000000000000000000600052602260045260246000fd5b61357b80620002cb6000396000f3fe608060405234801561001057600080fd5b50600436106101375760003560e01c80636352211e116100b8578063a22cb4651161007c578063a22cb4651461033c578063b88d4fde14610358578063c87b56dd14610374578063d5abeb01146103a4578063e985e9c5146103c2578063f2fde38b146103f257610137565b80636352211e1461029657806370a08231146102c6578063715018a6146102f65780638da5cb5b1461030057806395d89b411461031e57610137565b80631f63b623116100ff5780631f63b623146101f457806323b872dd146101fe5780632f745c591461021a57806342842e0e1461024a5780634f6ccce71461026657610137565b806301ffc9a71461013c57806306fdde031461016c578063081812fc1461018a578063095ea7b3146101ba57806318160ddd146101d6575b600080fd5b61015660048036038101906101519190612441565b61040e565b60405161016391906128bc565b60405180910390f35b610174610488565b60405161018191906128d7565b60405180910390f35b6101a4600480360381019061019f919061249b565b61051a565b6040516101b19190612855565b60405180910390f35b6101d460048036038101906101cf9190612401565b61059f565b005b6101de6106b7565b6040516101eb9190612b89565b60405180910390f35b6101fc6106c4565b005b610218600480360381019061021391906122eb565b610824565b005b610234600480360381019061022f9190612401565b610884565b6040516102419190612b89565b60405180910390f35b610264600480360381019061025f91906122eb565b610929565b005b610280600480360381019061027b919061249b565b610949565b60405161028d9190612b89565b60405180910390f35b6102b060048036038101906102ab919061249b565b6109ba565b6040516102bd9190612855565b60405180910390f35b6102e060048036038101906102db919061227e565b610a6c565b6040516102ed9190612b89565b60405180910390f35b6102fe610b24565b005b610308610bac565b6040516103159190612855565b60405180910390f35b610326610bd6565b60405161033391906128d7565b60405180910390f35b610356600480360381019061035191906123c1565b610c68565b005b610372600480360381019061036d919061233e565b610de9565b005b61038e6004803603810190610389919061249b565b610e4b565b60405161039b91906128d7565b60405180910390f35b6103ac610ef2565b6040516103b99190612b89565b60405180910390f35b6103dc60048036038101906103d791906122ab565b610ef7565b6040516103e991906128bc565b60405180910390f35b61040c6004803603810190610407919061227e565b610f8b565b005b60007f780e9d63000000000000000000000000000000000000000000000000000000007bffffffffffffffffffffffffffffffffffffffffffffffffffffffff1916827bffffffffffffffffffffffffffffffffffffffffffffffffffffffff19161480610481575061048082611083565b5b9050919050565b60606000805461049790612dae565b80601f01602080910402602001604051908101604052809291908181526020018280546104c390612dae565b80156105105780601f106104e557610100808354040283529160200191610510565b820191906000526020600020905b8154815290600101906020018083116104f357829003601f168201915b5050505050905090565b600061052582611165565b610564576040517f08c379a000000000000000000000000000000000000000000000000000000000815260040161055b90612aa9565b60405180910390fd5b6004600083815260200190815260200160002060009054906101000a900473ffffffffffffffffffffffffffffffffffffffff169050919050565b60006105aa826109ba565b90508073ffffffffffffffffffffffffffffffffffffffff168373ffffffffffffffffffffffffffffffffffffffff16141561061b576040517f08c379a000000000000000000000000000000000000000000000000000000000815260040161061290612b29565b60405180910390fd5b8073ffffffffffffffffffffffffffffffffffffffff1661063a6111d1565b73ffffffffffffffffffffffffffffffffffffffff1614806106695750610668816106636111d1565b610ef7565b5b6106a8576040517f08c379a000000000000000000000000000000000000000000000000000000000815260040161069f90612a09565b60405180910390fd5b6106b283836111d9565b505050565b6000600880549050905090565b6106cc6111d1565b73ffffffffffffffffffffffffffffffffffffffff166106ea610bac565b73ffffffffffffffffffffffffffffffffffffffff1614610740576040517f08c379a000000000000000000000000000000000000000000000000000000000815260040161073790612ac9565b60405180910390fd5b600161074a6106b7565b1061078a576040517f08c379a000000000000000000000000000000000000000000000000000000000815260040161078190612a89565b60405180910390fd5b610795336000611292565b6107db6040518060400160405280601281526020017f746f74616c20737570706c7920697320257300000000000000000000000000008152506107d66106b7565b6112b0565b6108226040518060400160405280601281526020017f6f776e65722068617320257320746f6b656e000000000000000000000000000081525061081d33610a6c565b6112b0565b565b61083561082f6111d1565b8261134c565b610874576040517f08c379a000000000000000000000000000000000000000000000000000000000815260040161086b90612b49565b60405180910390fd5b61087f83838361142a565b505050565b600061088f83610a6c565b82106108d0576040517f08c379a00000000000000000000000000000000000000000000000000000000081526004016108c790612929565b60405180910390fd5b600660008473ffffffffffffffffffffffffffffffffffffffff1673ffffffffffffffffffffffffffffffffffffffff168152602001908152602001600020600083815260200190815260200160002054905092915050565b61094483838360405180602001604052806000815250610de9565b505050565b60006109536106b7565b8210610994576040517f08c379a000000000000000000000000000000000000000000000000000000000815260040161098b90612b69565b60405180910390fd5b600882815481106109a8576109a7612f47565b5b90600052602060002001549050919050565b6000806002600084815260200190815260200160002060009054906101000a900473ffffffffffffffffffffffffffffffffffffffff169050600073ffffffffffffffffffffffffffffffffffffffff168173ffffffffffffffffffffffffffffffffffffffff161415610a63576040517f08c379a0000000000000000000000000000000000000000000000000000000008152600401610a5a90612a49565b60405180910390fd5b80915050919050565b60008073ffffffffffffffffffffffffffffffffffffffff168273ffffffffffffffffffffffffffffffffffffffff161415610add576040517f08c379a0000000000000000000000000000000000000000000000000000000008152600401610ad490612a29565b60405180910390fd5b600360008373ffffffffffffffffffffffffffffffffffffffff1673ffffffffffffffffffffffffffffffffffffffff168152602001908152602001600020549050919050565b610b2c6111d1565b73ffffffffffffffffffffffffffffffffffffffff16610b4a610bac565b73ffffffffffffffffffffffffffffffffffffffff1614610ba0576040517f08c379a0000000000000000000000000000000000000000000000000000000008152600401610b9790612ac9565b60405180910390fd5b610baa6000611686565b565b6000600a60009054906101000a900473ffffffffffffffffffffffffffffffffffffffff16905090565b606060018054610be590612dae565b80601f0160208091040260200160405190810160405280929190818152602001828054610c1190612dae565b8015610c5e5780601f10610c3357610100808354040283529160200191610c5e565b820191906000526020600020905b815481529060010190602001808311610c4157829003601f168201915b5050505050905090565b610c706111d1565b73ffffffffffffffffffffffffffffffffffffffff168273ffffffffffffffffffffffffffffffffffffffff161415610cde576040517f08c379a0000000000000000000000000000000000000000000000000000000008152600401610cd5906129c9565b60405180910390fd5b8060056000610ceb6111d1565b73ffffffffffffffffffffffffffffffffffffffff1673ffffffffffffffffffffffffffffffffffffffff16815260200190815260200160002060008473ffffffffffffffffffffffffffffffffffffffff1673ffffffffffffffffffffffffffffffffffffffff16815260200190815260200160002060006101000a81548160ff0219169083151502179055508173ffffffffffffffffffffffffffffffffffffffff16610d986111d1565b73ffffffffffffffffffffffffffffffffffffffff167f17307eab39ab6107e8899845ad3d59bd9653f200f220920489ca2b5937696c3183604051610ddd91906128bc565b60405180910390a35050565b610dfa610df46111d1565b8361134c565b610e39576040517f08c379a0000000000000000000000000000000000000000000000000000000008152600401610e3090612b49565b60405180910390fd5b610e458484848461174c565b50505050565b6060610e5682611165565b610e95576040517f08c379a0000000000000000000000000000000000000000000000000000000008152600401610e8c90612b09565b60405180910390fd5b6000610e9f6117a8565b90506000815111610ebf5760405180602001604052806000815250610eea565b80610ec9846117bf565b604051602001610eda929190612831565b6040516020818303038152906040525b915050919050565b600181565b6000600560008473ffffffffffffffffffffffffffffffffffffffff1673ffffffffffffffffffffffffffffffffffffffff16815260200190815260200160002060008373ffffffffffffffffffffffffffffffffffffffff1673ffffffffffffffffffffffffffffffffffffffff16815260200190815260200160002060009054906101000a900460ff16905092915050565b610f936111d1565b73ffffffffffffffffffffffffffffffffffffffff16610fb1610bac565b73ffffffffffffffffffffffffffffffffffffffff1614611007576040517f08c379a0000000000000000000000000000000000000000000000000000000008152600401610ffe90612ac9565b60405180910390fd5b600073ffffffffffffffffffffffffffffffffffffffff168173ffffffffffffffffffffffffffffffffffffffff161415611077576040517f08c379a000000000000000000000000000000000000000000000000000000000815260040161106e90612969565b60405180910390fd5b61108081611686565b50565b60007f80ac58cd000000000000000000000000000000000000000000000000000000007bffffffffffffffffffffffffffffffffffffffffffffffffffffffff1916827bffffffffffffffffffffffffffffffffffffffffffffffffffffffff1916148061114e57507f5b5e139f000000000000000000000000000000000000000000000000000000007bffffffffffffffffffffffffffffffffffffffffffffffffffffffff1916827bffffffffffffffffffffffffffffffffffffffffffffffffffffffff1916145b8061115e575061115d82611920565b5b9050919050565b60008073ffffffffffffffffffffffffffffffffffffffff166002600084815260200190815260200160002060009054906101000a900473ffffffffffffffffffffffffffffffffffffffff1673ffffffffffffffffffffffffffffffffffffffff1614159050919050565b600033905090565b816004600083815260200190815260200160002060006101000a81548173ffffffffffffffffffffffffffffffffffffffff021916908373ffffffffffffffffffffffffffffffffffffffff160217905550808273ffffffffffffffffffffffffffffffffffffffff1661124c836109ba565b73ffffffffffffffffffffffffffffffffffffffff167f8c5be1e5ebec7d5bd14f71427d1e84f3dd0314c0f7b2291e5b200ac8c7c3b92560405160405180910390a45050565b6112ac82826040518060200160405280600081525061198a565b5050565b61134882826040516024016112c69291906128f9565b6040516020818303038152906040527f9710a9d0000000000000000000000000000000000000000000000000000000007bffffffffffffffffffffffffffffffffffffffffffffffffffffffff19166020820180517bffffffffffffffffffffffffffffffffffffffffffffffffffffffff83818316178352505050506119e5565b5050565b600061135782611165565b611396576040517f08c379a000000000000000000000000000000000000000000000000000000000815260040161138d906129e9565b60405180910390fd5b60006113a1836109ba565b90508073ffffffffffffffffffffffffffffffffffffffff168473ffffffffffffffffffffffffffffffffffffffff16148061141057508373ffffffffffffffffffffffffffffffffffffffff166113f88461051a565b73ffffffffffffffffffffffffffffffffffffffff16145b8061142157506114208185610ef7565b5b91505092915050565b8273ffffffffffffffffffffffffffffffffffffffff1661144a826109ba565b73ffffffffffffffffffffffffffffffffffffffff16146114a0576040517f08c379a000000000000000000000000000000000000000000000000000000000815260040161149790612ae9565b60405180910390fd5b600073ffffffffffffffffffffffffffffffffffffffff168273ffffffffffffffffffffffffffffffffffffffff161415611510576040517f08c379a0000000000000000000000000000000000000000000000000000000008152600401611507906129a9565b60405180910390fd5b61151b838383611a0e565b6115266000826111d9565b6001600360008573ffffffffffffffffffffffffffffffffffffffff1673ffffffffffffffffffffffffffffffffffffffff16815260200190815260200160002060008282546115769190612cc4565b925050819055506001600360008473ffffffffffffffffffffffffffffffffffffffff1673ffffffffffffffffffffffffffffffffffffffff16815260200190815260200160002060008282546115cd9190612c3d565b92505081905550816002600083815260200190815260200160002060006101000a81548173ffffffffffffffffffffffffffffffffffffffff021916908373ffffffffffffffffffffffffffffffffffffffff160217905550808273ffffffffffffffffffffffffffffffffffffffff168473ffffffffffffffffffffffffffffffffffffffff167fddf252ad1be2c89b69c2b068fc378daa952ba7f163c4a11628f55a4df523b3ef60405160405180910390a4505050565b6000600a60009054906101000a900473ffffffffffffffffffffffffffffffffffffffff16905081600a60006101000a81548173ffffffffffffffffffffffffffffffffffffffff021916908373ffffffffffffffffffffffffffffffffffffffff1602179055508173ffffffffffffffffffffffffffffffffffffffff168173ffffffffffffffffffffffffffffffffffffffff167f8be0079c531659141344cd1fd0a4f28419497f9722a3daafe3b4186f6b6457e060405160405180910390a35050565b61175784848461142a565b61176384848484611b22565b6117a2576040517f08c379a000000000000000000000000000000000000000000000000000000000815260040161179990612949565b60405180910390fd5b50505050565b606060405180602001604052806000815250905090565b60606000821415611807576040518060400160405280600181526020017f3000000000000000000000000000000000000000000000000000000000000000815250905061191b565b600082905060005b6000821461183957808061182290612e11565b915050600a826118329190612c93565b915061180f565b60008167ffffffffffffffff81111561185557611854612f76565b5b6040519080825280601f01601f1916602001820160405280156118875781602001600182028036833780820191505090505b5090505b60008514611914576001826118a09190612cc4565b9150600a856118af9190612e5a565b60306118bb9190612c3d565b60f81b8183815181106118d1576118d0612f47565b5b60200101907effffffffffffffffffffffffffffffffffffffffffffffffffffffffffffff1916908160001a905350600a8561190d9190612c93565b945061188b565b8093505050505b919050565b60007f01ffc9a7000000000000000000000000000000000000000000000000000000007bffffffffffffffffffffffffffffffffffffffffffffffffffffffff1916827bffffffffffffffffffffffffffffffffffffffffffffffffffffffff1916149050919050565b6119948383611cb9565b6119a16000848484611b22565b6119e0576040517f08c379a00000000000000000000000000000000000000000000000000000000081526004016119d790612949565b60405180910390fd5b505050565b60008151905060006a636f6e736f6c652e6c6f679050602083016000808483855afa5050505050565b611a19838383611e87565b600073ffffffffffffffffffffffffffffffffffffffff168373ffffffffffffffffffffffffffffffffffffffff161415611a5c57611a5781611e8c565b611a9b565b8173ffffffffffffffffffffffffffffffffffffffff168373ffffffffffffffffffffffffffffffffffffffff1614611a9a57611a998382611ed5565b5b5b600073ffffffffffffffffffffffffffffffffffffffff168273ffffffffffffffffffffffffffffffffffffffff161415611ade57611ad981612042565b611b1d565b8273ffffffffffffffffffffffffffffffffffffffff168273ffffffffffffffffffffffffffffffffffffffff1614611b1c57611b1b8282612113565b5b5b505050565b6000611b438473ffffffffffffffffffffffffffffffffffffffff16612192565b15611cac578373ffffffffffffffffffffffffffffffffffffffff1663150b7a02611b6c6111d1565b8786866040518563ffffffff1660e01b8152600401611b8e9493929190612870565b602060405180830381600087803b158015611ba857600080fd5b505af1925050508015611bd957506040513d601f19601f82011682018060405250810190611bd6919061246e565b60015b611c5c573d8060008114611c09576040519150601f19603f3d011682016040523d82523d6000602084013e611c0e565b606091505b50600081511415611c54576040517f08c379a0000000000000000000000000000000000000000000000000000000008152600401611c4b90612949565b60405180910390fd5b805181602001fd5b63150b7a0260e01b7bffffffffffffffffffffffffffffffffffffffffffffffffffffffff1916817bffffffffffffffffffffffffffffffffffffffffffffffffffffffff191614915050611cb1565b600190505b949350505050565b600073ffffffffffffffffffffffffffffffffffffffff168273ffffffffffffffffffffffffffffffffffffffff161415611d29576040517f08c379a0000000000000000000000000000000000000000000000000000000008152600401611d2090612a69565b60405180910390fd5b611d3281611165565b15611d72576040517f08c379a0000000000000000000000000000000000000000000000000000000008152600401611d6990612989565b60405180910390fd5b611d7e60008383611a0e565b6001600360008473ffffffffffffffffffffffffffffffffffffffff1673ffffffffffffffffffffffffffffffffffffffff1681526020019081526020016000206000828254611dce9190612c3d565b92505081905550816002600083815260200190815260200160002060006101000a81548173ffffffffffffffffffffffffffffffffffffffff021916908373ffffffffffffffffffffffffffffffffffffffff160217905550808273ffffffffffffffffffffffffffffffffffffffff16600073ffffffffffffffffffffffffffffffffffffffff167fddf252ad1be2c89b69c2b068fc378daa952ba7f163c4a11628f55a4df523b3ef60405160405180910390a45050565b505050565b6008805490506009600083815260200190815260200160002081905550600881908060018154018082558091505060019003906000526020600020016000909190919091505550565b60006001611ee284610a6c565b611eec9190612cc4565b9050600060076000848152602001908152602001600020549050818114611fd1576000600660008673ffffffffffffffffffffffffffffffffffffffff1673ffffffffffffffffffffffffffffffffffffffff168152602001908152602001600020600084815260200190815260200160002054905080600660008773ffffffffffffffffffffffffffffffffffffffff1673ffffffffffffffffffffffffffffffffffffffff168152602001908152602001600020600084815260200190815260200160002081905550816007600083815260200190815260200160002081905550505b6007600084815260200190815260200160002060009055600660008573ffffffffffffffffffffffffffffffffffffffff1673ffffffffffffffffffffffffffffffffffffffff16815260200190815260200160002060008381526020019081526020016000206000905550505050565b600060016008805490506120569190612cc4565b905060006009600084815260200190815260200160002054905060006008838154811061208657612085612f47565b5b9060005260206000200154905080600883815481106120a8576120a7612f47565b5b9060005260206000200181905550816009600083815260200190815260200160002081905550600960008581526020019081526020016000206000905560088054806120f7576120f6612f18565b5b6001900381819060005260206000200160009055905550505050565b600061211e83610a6c565b905081600660008573ffffffffffffffffffffffffffffffffffffffff1673ffffffffffffffffffffffffffffffffffffffff168152602001908152602001600020600083815260200190815260200160002081905550806007600084815260200190815260200160002081905550505050565b600080823b905060008111915050919050565b60006121b86121b384612bc9565b612ba4565b9050828152602081018484840111156121d4576121d3612faa565b5b6121df848285612d6c565b509392505050565b6000813590506121f6816134e9565b92915050565b60008135905061220b81613500565b92915050565b60008135905061222081613517565b92915050565b60008151905061223581613517565b92915050565b600082601f8301126122505761224f612fa5565b5b81356122608482602086016121a5565b91505092915050565b6000813590506122788161352e565b92915050565b60006020828403121561229457612293612fb4565b5b60006122a2848285016121e7565b91505092915050565b600080604083850312156122c2576122c1612fb4565b5b60006122d0858286016121e7565b92505060206122e1858286016121e7565b9150509250929050565b60008060006060848603121561230457612303612fb4565b5b6000612312868287016121e7565b9350506020612323868287016121e7565b925050604061233486828701612269565b9150509250925092565b6000806000806080858703121561235857612357612fb4565b5b6000612366878288016121e7565b9450506020612377878288016121e7565b935050604061238887828801612269565b925050606085013567ffffffffffffffff8111156123a9576123a8612faf565b5b6123b58782880161223b565b91505092959194509250565b600080604083850312156123d8576123d7612fb4565b5b60006123e6858286016121e7565b92505060206123f7858286016121fc565b9150509250929050565b6000806040838503121561241857612417612fb4565b5b6000612426858286016121e7565b925050602061243785828601612269565b9150509250929050565b60006020828403121561245757612456612fb4565b5b600061246584828501612211565b91505092915050565b60006020828403121561248457612483612fb4565b5b600061249284828501612226565b91505092915050565b6000602082840312156124b1576124b0612fb4565b5b60006124bf84828501612269565b91505092915050565b6124d181612cf8565b82525050565b6124e081612d0a565b82525050565b60006124f182612bfa565b6124fb8185612c10565b935061250b818560208601612d7b565b61251481612fb9565b840191505092915050565b600061252a82612c05565b6125348185612c21565b9350612544818560208601612d7b565b61254d81612fb9565b840191505092915050565b600061256382612c05565b61256d8185612c32565b935061257d818560208601612d7b565b80840191505092915050565b6000612596602b83612c21565b91506125a182612fca565b604082019050919050565b60006125b9603283612c21565b91506125c482613019565b604082019050919050565b60006125dc602683612c21565b91506125e782613068565b604082019050919050565b60006125ff601c83612c21565b915061260a826130b7565b602082019050919050565b6000612622602483612c21565b915061262d826130e0565b604082019050919050565b6000612645601983612c21565b91506126508261312f565b602082019050919050565b6000612668602c83612c21565b915061267382613158565b604082019050919050565b600061268b603883612c21565b9150612696826131a7565b604082019050919050565b60006126ae602a83612c21565b91506126b9826131f6565b604082019050919050565b60006126d1602983612c21565b91506126dc82613245565b604082019050919050565b60006126f4602083612c21565b91506126ff82613294565b602082019050919050565b6000612717601383612c21565b9150612722826132bd565b602082019050919050565b600061273a602c83612c21565b9150612745826132e6565b604082019050919050565b600061275d602083612c21565b915061276882613335565b602082019050919050565b6000612780602983612c21565b915061278b8261335e565b604082019050919050565b60006127a3602f83612c21565b91506127ae826133ad565b604082019050919050565b60006127c6602183612c21565b91506127d1826133fc565b604082019050919050565b60006127e9603183612c21565b91506127f48261344b565b604082019050919050565b600061280c602c83612c21565b91506128178261349a565b604082019050919050565b61282b81612d62565b82525050565b600061283d8285612558565b91506128498284612558565b91508190509392505050565b600060208201905061286a60008301846124c8565b92915050565b600060808201905061288560008301876124c8565b61289260208301866124c8565b61289f6040830185612822565b81810360608301526128b181846124e6565b905095945050505050565b60006020820190506128d160008301846124d7565b92915050565b600060208201905081810360008301526128f1818461251f565b905092915050565b60006040820190508181036000830152612913818561251f565b90506129226020830184612822565b9392505050565b6000602082019050818103600083015261294281612589565b9050919050565b60006020820190508181036000830152612962816125ac565b9050919050565b60006020820190508181036000830152612982816125cf565b9050919050565b600060208201905081810360008301526129a2816125f2565b9050919050565b600060208201905081810360008301526129c281612615565b9050919050565b600060208201905081810360008301526129e281612638565b9050919050565b60006020820190508181036000830152612a028161265b565b9050919050565b60006020820190508181036000830152612a228161267e565b9050919050565b60006020820190508181036000830152612a42816126a1565b9050919050565b60006020820190508181036000830152612a62816126c4565b9050919050565b60006020820190508181036000830152612a82816126e7565b9050919050565b60006020820190508181036000830152612aa28161270a565b9050919050565b60006020820190508181036000830152612ac28161272d565b9050919050565b60006020820190508181036000830152612ae281612750565b9050919050565b60006020820190508181036000830152612b0281612773565b9050919050565b60006020820190508181036000830152612b2281612796565b9050919050565b60006020820190508181036000830152612b42816127b9565b9050919050565b60006020820190508181036000830152612b62816127dc565b9050919050565b60006020820190508181036000830152612b82816127ff565b9050919050565b6000602082019050612b9e6000830184612822565b92915050565b6000612bae612bbf565b9050612bba8282612de0565b919050565b6000604051905090565b600067ffffffffffffffff821115612be457612be3612f76565b5b612bed82612fb9565b9050602081019050919050565b600081519050919050565b600081519050919050565b600082825260208201905092915050565b600082825260208201905092915050565b600081905092915050565b6000612c4882612d62565b9150612c5383612d62565b9250827fffffffffffffffffffffffffffffffffffffffffffffffffffffffffffffffff03821115612c8857612c87612e8b565b5b828201905092915050565b6000612c9e82612d62565b9150612ca983612d62565b925082612cb957612cb8612eba565b5b828204905092915050565b6000612ccf82612d62565b9150612cda83612d62565b925082821015612ced57612cec612e8b565b5b828203905092915050565b6000612d0382612d42565b9050919050565b60008115159050919050565b60007fffffffff0000000000000000000000000000000000000000000000000000000082169050919050565b600073ffffffffffffffffffffffffffffffffffffffff82169050919050565b6000819050919050565b82818337600083830152505050565b60005b83811015612d99578082015181840152602081019050612d7e565b83811115612da8576000848401525b50505050565b60006002820490506001821680612dc657607f821691505b60208210811415612dda57612dd9612ee9565b5b50919050565b612de982612fb9565b810181811067ffffffffffffffff82111715612e0857612e07612f76565b5b80604052505050565b6000612e1c82612d62565b91507fffffffffffffffffffffffffffffffffffffffffffffffffffffffffffffffff821415612e4f57612e4e612e8b565b5b600182019050919050565b6000612e6582612d62565b9150612e7083612d62565b925082612e8057612e7f612eba565b5b828206905092915050565b7f4e487b7100000000000000000000000000000000000000000000000000000000600052601160045260246000fd5b7f4e487b7100000000000000000000000000000000000000000000000000000000600052601260045260246000fd5b7f4e487b7100000000000000000000000000000000000000000000000000000000600052602260045260246000fd5b7f4e487b7100000000000000000000000000000000000000000000000000000000600052603160045260246000fd5b7f4e487b7100000000000000000000000000000000000000000000000000000000600052603260045260246000fd5b7f4e487b7100000000000000000000000000000000000000000000000000000000600052604160045260246000fd5b600080fd5b600080fd5b600080fd5b600080fd5b6000601f19601f8301169050919050565b7f455243373231456e756d657261626c653a206f776e657220696e646578206f7560008201527f74206f6620626f756e6473000000000000000000000000000000000000000000602082015250565b7f4552433732313a207472616e7366657220746f206e6f6e20455243373231526560008201527f63656976657220696d706c656d656e7465720000000000000000000000000000602082015250565b7f4f776e61626c653a206e6577206f776e657220697320746865207a65726f206160008201527f6464726573730000000000000000000000000000000000000000000000000000602082015250565b7f4552433732313a20746f6b656e20616c7265616479206d696e74656400000000600082015250565b7f4552433732313a207472616e7366657220746f20746865207a65726f2061646460008201527f7265737300000000000000000000000000000000000000000000000000000000602082015250565b7f4552433732313a20617070726f766520746f2063616c6c657200000000000000600082015250565b7f4552433732313a206f70657261746f7220717565727920666f72206e6f6e657860008201527f697374656e7420746f6b656e0000000000000000000000000000000000000000602082015250565b7f4552433732313a20617070726f76652063616c6c6572206973206e6f74206f7760008201527f6e6572206e6f7220617070726f76656420666f7220616c6c0000000000000000602082015250565b7f4552433732313a2062616c616e636520717565727920666f7220746865207a6560008201527f726f206164647265737300000000000000000000000000000000000000000000602082015250565b7f4552433732313a206f776e657220717565727920666f72206e6f6e657869737460008201527f656e7420746f6b656e0000000000000000000000000000000000000000000000602082015250565b7f4552433732313a206d696e7420746f20746865207a65726f2061646472657373600082015250565b7f52696e6720616c7265616479206d696e74656400000000000000000000000000600082015250565b7f4552433732313a20617070726f76656420717565727920666f72206e6f6e657860008201527f697374656e7420746f6b656e0000000000000000000000000000000000000000602082015250565b7f4f776e61626c653a2063616c6c6572206973206e6f7420746865206f776e6572600082015250565b7f4552433732313a207472616e73666572206f6620746f6b656e2074686174206960008201527f73206e6f74206f776e0000000000000000000000000000000000000000000000602082015250565b7f4552433732314d657461646174613a2055524920717565727920666f72206e6f60008201527f6e6578697374656e7420746f6b656e0000000000000000000000000000000000602082015250565b7f4552433732313a20617070726f76616c20746f2063757272656e74206f776e6560008201527f7200000000000000000000000000000000000000000000000000000000000000602082015250565b7f4552433732313a207472616e736665722063616c6c6572206973206e6f74206f60008201527f776e6572206e6f7220617070726f766564000000000000000000000000000000602082015250565b7f455243373231456e756d657261626c653a20676c6f62616c20696e646578206f60008201527f7574206f6620626f756e64730000000000000000000000000000000000000000602082015250565b6134f281612cf8565b81146134fd57600080fd5b50565b61350981612d0a565b811461351457600080fd5b50565b61352081612d16565b811461352b57600080fd5b50565b61353781612d62565b811461354257600080fd5b5056fea26469706673582212200af663759f12b753d0182462d9fcc236616afd29a4613352e1547632c2920d9064736f6c63430008070033",
  "linkReferences": {},
  "deployedLinkReferences": {}
}