{
  "_format": "hh-sol-artifact-1",
  "contractName": "Tax",
  "sourceName": "contracts/Tax.sol",
  "abi": [
    {
      "inputs": [
        {
          "internalType": "uint8",
          "name": "_feeDecimals",
          "type": "uint8"
        },
        {
          "internalType": "uint32",
          "name": "_feePercentage",
          "type": "uint32"
        }
      ],
      "stateMutability": "nonpayable",
      "type": "constructor"
    },
    {
      "anonymous": false,
      "inputs": [
        {
          "indexed": true,
          "internalType": "address",
          "name": "owner",
          "type": "address"
        },
        {
          "indexed": true,
          "internalType": "address",
          "name": "spender",
          "type": "address"
        },
        {
          "indexed": false,
          "internalType": "uint256",
          "name": "value",
          "type": "uint256"
        }
      ],
      "name": "Approval",
      "type": "event"
    },
    {
      "anonymous": false,
      "inputs": [
        {
          "indexed": false,
          "internalType": "uint8",
          "name": "feeDecimals",
          "type": "uint8"
        },
        {
          "indexed": false,
          "internalType": "uint32",
          "name": "feePercentage",
          "type": "uint32"
        }
      ],
      "name": "FeeUpdated",
      "type": "event"
    },
    {
      "anonymous": false,
      "inputs": [
        {
          "indexed": true,
          "internalType": "address",
          "name": "previousOwner",
          "type": "address"
        },
        {
          "indexed": true,
          "internalType": "address",
          "name": "newOwner",
          "type": "address"
        }
      ],
      "name": "OwnershipTransferred",
      "type": "event"
    },
    {
      "anonymous": false,
      "inputs": [
        {
          "indexed": true,
          "internalType": "address",
          "name": "from",
          "type": "address"
        },
        {
          "indexed": true,
          "internalType": "address",
          "name": "to",
          "type": "address"
        },
        {
          "indexed": false,
          "internalType": "uint256",
          "name": "value",
          "type": "uint256"
        }
      ],
      "name": "Transfer",
      "type": "event"
    },
    {
      "inputs": [],
      "name": "_totalTaxedTokens",
      "outputs": [
        {
          "internalType": "uint256",
          "name": "",
          "type": "uint256"
        }
      ],
      "stateMutability": "view",
      "type": "function"
    },
    {
      "inputs": [
        {
          "internalType": "address",
          "name": "owner",
          "type": "address"
        },
        {
          "internalType": "address",
          "name": "spender",
          "type": "address"
        }
      ],
      "name": "allowance",
      "outputs": [
        {
          "internalType": "uint256",
          "name": "",
          "type": "uint256"
        }
      ],
      "stateMutability": "view",
      "type": "function"
    },
    {
      "inputs": [
        {
          "internalType": "address",
          "name": "spender",
          "type": "address"
        },
        {
          "internalType": "uint256",
          "name": "amount",
          "type": "uint256"
        }
      ],
      "name": "approve",
      "outputs": [
        {
          "internalType": "bool",
          "name": "",
          "type": "bool"
        }
      ],
      "stateMutability": "nonpayable",
      "type": "function"
    },
    {
      "inputs": [
        {
          "internalType": "address",
          "name": "account",
          "type": "address"
        }
      ],
      "name": "balanceOf",
      "outputs": [
        {
          "internalType": "uint256",
          "name": "",
          "type": "uint256"
        }
      ],
      "stateMutability": "view",
      "type": "function"
    },
    {
      "inputs": [
        {
          "internalType": "uint256",
          "name": "_amount",
          "type": "uint256"
        },
        {
          "internalType": "uint8",
          "name": "_feeDecimals",
          "type": "uint8"
        },
        {
          "internalType": "uint32",
          "name": "_feePercentage",
          "type": "uint32"
        }
      ],
      "name": "calculateTokenTax",
      "outputs": [
        {
          "internalType": "uint256",
          "name": "taxed",
          "type": "uint256"
        }
      ],
      "stateMutability": "pure",
      "type": "function"
    },
    {
      "inputs": [],
      "name": "decimals",
      "outputs": [
        {
          "internalType": "uint8",
          "name": "",
          "type": "uint8"
        }
      ],
      "stateMutability": "view",
      "type": "function"
    },
    {
      "inputs": [
        {
          "internalType": "address",
          "name": "spender",
          "type": "address"
        },
        {
          "internalType": "uint256",
          "name": "subtractedValue",
          "type": "uint256"
        }
      ],
      "name": "decreaseAllowance",
      "outputs": [
        {
          "internalType": "bool",
          "name": "",
          "type": "bool"
        }
      ],
      "stateMutability": "nonpayable",
      "type": "function"
    },
    {
      "inputs": [],
      "name": "feeDecimals",
      "outputs": [
        {
          "internalType": "uint8",
          "name": "",
          "type": "uint8"
        }
      ],
      "stateMutability": "view",
      "type": "function"
    },
    {
      "inputs": [],
      "name": "feePercentage",
      "outputs": [
        {
          "internalType": "uint32",
          "name": "",
          "type": "uint32"
        }
      ],
      "stateMutability": "view",
      "type": "function"
    },
    {
      "inputs": [
        {
          "internalType": "address",
          "name": "spender",
          "type": "address"
        },
        {
          "internalType": "uint256",
          "name": "addedValue",
          "type": "uint256"
        }
      ],
      "name": "increaseAllowance",
      "outputs": [
        {
          "internalType": "bool",
          "name": "",
          "type": "bool"
        }
      ],
      "stateMutability": "nonpayable",
      "type": "function"
    },
    {
      "inputs": [],
      "name": "name",
      "outputs": [
        {
          "internalType": "string",
          "name": "",
          "type": "string"
        }
      ],
      "stateMutability": "view",
      "type": "function"
    },
    {
      "inputs": [],
      "name": "owner",
      "outputs": [
        {
          "internalType": "address",
          "name": "",
          "type": "address"
        }
      ],
      "stateMutability": "view",
      "type": "function"
    },
    {
      "inputs": [],
      "name": "renounceOwnership",
      "outputs": [],
      "stateMutability": "nonpayable",
      "type": "function"
    },
    {
      "inputs": [],
      "name": "symbol",
      "outputs": [
        {
          "internalType": "string",
          "name": "",
          "type": "string"
        }
      ],
      "stateMutability": "view",
      "type": "function"
    },
    {
      "inputs": [],
      "name": "taxCollector",
      "outputs": [
        {
          "internalType": "address",
          "name": "",
          "type": "address"
        }
      ],
      "stateMutability": "view",
      "type": "function"
    },
    {
      "inputs": [],
      "name": "totalSupply",
      "outputs": [
        {
          "internalType": "uint256",
          "name": "",
          "type": "uint256"
        }
      ],
      "stateMutability": "view",
      "type": "function"
    },
    {
      "inputs": [
        {
          "internalType": "address",
          "name": "recipient",
          "type": "address"
        },
        {
          "internalType": "uint256",
          "name": "amount",
          "type": "uint256"
        }
      ],
      "name": "transfer",
      "outputs": [
        {
          "internalType": "bool",
          "name": "",
          "type": "bool"
        }
      ],
      "stateMutability": "nonpayable",
      "type": "function"
    },
    {
      "inputs": [
        {
          "internalType": "address",
          "name": "sender",
          "type": "address"
        },
        {
          "internalType": "address",
          "name": "recipient",
          "type": "address"
        },
        {
          "internalType": "uint256",
          "name": "amount",
          "type": "uint256"
        }
      ],
      "name": "transferFrom",
      "outputs": [
        {
          "internalType": "bool",
          "name": "",
          "type": "bool"
        }
      ],
      "stateMutability": "nonpayable",
      "type": "function"
    },
    {
      "inputs": [
        {
          "internalType": "address",
          "name": "newOwner",
          "type": "address"
        }
      ],
      "name": "transferOwnership",
      "outputs": [],
      "stateMutability": "nonpayable",
      "type": "function"
    },
    {
      "inputs": [
        {
          "internalType": "uint8",
          "name": "_feeDecimals",
          "type": "uint8"
        },
        {
          "internalType": "uint32",
          "name": "_feePercentage",
          "type": "uint32"
        }
      ],
      "name": "updateFee",
      "outputs": [],
      "stateMutability": "nonpayable",
      "type": "function"
    },
    {
      "inputs": [
        {
          "internalType": "address",
          "name": "_newTaxCollector",
          "type": "address"
        }
      ],
      "name": "updateTaxCollector",
      "outputs": [],
      "stateMutability": "nonpayable",
      "type": "function"
    }
  ],
  "bytecode": "0x60806040526000600660006101000a81548173ffffffffffffffffffffffffffffffffffffffff021916908373ffffffffffffffffffffffffffffffffffffffff1602179055503480156200005357600080fd5b5060405162002dd838038062002dd8833981810160405281019062000079919062000744565b6040518060400160405280600481526020017f54617865000000000000000000000000000000000000000000000000000000008152506040518060400160405280600381526020017f54415800000000000000000000000000000000000000000000000000000000008152508160039080519060200190620000fd92919062000666565b5080600490805190602001906200011692919062000666565b505050620001396200012d620001ca60201b60201c565b620001d260201b60201c565b6200015433683635c9adc5dea000006200029860201b60201c565b620001b06040518060400160405280601381526020017f4f776e657220616d6f756e742069732025733a000000000000000000000000008152506200019f336200041160201b60201c565b6200045960201b62000cf21760201c565b620001c28282620004ff60201b60201c565b505062000b15565b600033905090565b6000600560009054906101000a900473ffffffffffffffffffffffffffffffffffffffff16905081600560006101000a81548173ffffffffffffffffffffffffffffffffffffffff021916908373ffffffffffffffffffffffffffffffffffffffff1602179055508173ffffffffffffffffffffffffffffffffffffffff168173ffffffffffffffffffffffffffffffffffffffff167f8be0079c531659141344cd1fd0a4f28419497f9722a3daafe3b4186f6b6457e060405160405180910390a35050565b600073ffffffffffffffffffffffffffffffffffffffff168273ffffffffffffffffffffffffffffffffffffffff1614156200030b576040517f08c379a00000000000000000000000000000000000000000000000000000000081526004016200030290620008a3565b60405180910390fd5b6200031f600083836200060960201b60201c565b80600260008282546200033391906200092b565b92505081905550806000808473ffffffffffffffffffffffffffffffffffffffff1673ffffffffffffffffffffffffffffffffffffffff16815260200190815260200160002060008282546200038a91906200092b565b925050819055508173ffffffffffffffffffffffffffffffffffffffff16600073ffffffffffffffffffffffffffffffffffffffff167fddf252ad1be2c89b69c2b068fc378daa952ba7f163c4a11628f55a4df523b3ef83604051620003f19190620008c5565b60405180910390a36200040d600083836200060e60201b60201c565b5050565b60008060008373ffffffffffffffffffffffffffffffffffffffff1673ffffffffffffffffffffffffffffffffffffffff168152602001908152602001600020549050919050565b620004fb8282604051602401620004729291906200084d565b6040516020818303038152906040527f9710a9d0000000000000000000000000000000000000000000000000000000007bffffffffffffffffffffffffffffffffffffffffffffffffffffffff19166020820180517bffffffffffffffffffffffffffffffffffffffffffffffffffffffff83818316178352505050506200061360201b60201c565b5050565b6200050f620001ca60201b60201c565b73ffffffffffffffffffffffffffffffffffffffff16620005356200063c60201b60201c565b73ffffffffffffffffffffffffffffffffffffffff16146200058e576040517f08c379a0000000000000000000000000000000000000000000000000000000008152600401620005859062000881565b60405180910390fd5b81600660146101000a81548160ff021916908360ff16021790555080600660156101000a81548163ffffffff021916908363ffffffff1602179055507f460fa919625630f734b5d86356a2511f134b6df313c793ca09e0399de8d933a08282604051620005fd929190620008e2565b60405180910390a15050565b505050565b505050565b60008151905060006a636f6e736f6c652e6c6f679050602083016000808483855afa5050505050565b6000600560009054906101000a900473ffffffffffffffffffffffffffffffffffffffff16905090565b8280546200067490620009e5565b90600052602060002090601f016020900481019282620006985760008555620006e4565b82601f10620006b357805160ff1916838001178555620006e4565b82800160010185558215620006e4579182015b82811115620006e3578251825591602001919060010190620006c6565b5b509050620006f39190620006f7565b5090565b5b8082111562000712576000816000905550600101620006f8565b5090565b600081519050620007278162000ae1565b92915050565b6000815190506200073e8162000afb565b92915050565b600080604083850312156200075e576200075d62000a79565b5b60006200076e858286016200072d565b9250506020620007818582860162000716565b9150509250929050565b600062000798826200090f565b620007a481856200091a565b9350620007b6818560208601620009af565b620007c18162000a7e565b840191505092915050565b6000620007db6020836200091a565b9150620007e88262000a8f565b602082019050919050565b600062000802601f836200091a565b91506200080f8262000ab8565b602082019050919050565b620008258162000988565b82525050565b620008368162000992565b82525050565b6200084781620009a2565b82525050565b600060408201905081810360008301526200086981856200078b565b90506200087a60208301846200081a565b9392505050565b600060208201905081810360008301526200089c81620007cc565b9050919050565b60006020820190508181036000830152620008be81620007f3565b9050919050565b6000602082019050620008dc60008301846200081a565b92915050565b6000604082019050620008f960008301856200083c565b6200090860208301846200082b565b9392505050565b600081519050919050565b600082825260208201905092915050565b6000620009388262000988565b9150620009458362000988565b9250827fffffffffffffffffffffffffffffffffffffffffffffffffffffffffffffffff038211156200097d576200097c62000a1b565b5b828201905092915050565b6000819050919050565b600063ffffffff82169050919050565b600060ff82169050919050565b60005b83811015620009cf578082015181840152602081019050620009b2565b83811115620009df576000848401525b50505050565b60006002820490506001821680620009fe57607f821691505b6020821081141562000a155762000a1462000a4a565b5b50919050565b7f4e487b7100000000000000000000000000000000000000000000000000000000600052601160045260246000fd5b7f4e487b7100000000000000000000000000000000000000000000000000000000600052602260045260246000fd5b600080fd5b6000601f19601f8301169050919050565b7f4f776e61626c653a2063616c6c6572206973206e6f7420746865206f776e6572600082015250565b7f45524332303a206d696e7420746f20746865207a65726f206164647265737300600082015250565b62000aec8162000992565b811462000af857600080fd5b50565b62000b0681620009a2565b811462000b1257600080fd5b50565b6122b38062000b256000396000f3fe608060405234801561001057600080fd5b50600436106101375760003560e01c806395d89b41116100b8578063c39195861161007c578063c391958614610354578063cc0f178614610372578063d11122f814610390578063dd62ed3e146103c0578063eaa93e78146103f0578063f2fde38b1461040c57610137565b806395d89b411461029a578063a001ecdd146102b8578063a457c2d7146102d6578063a9059cbb14610306578063bea1dcf81461033657610137565b8063313ce567116100ff578063313ce567146101f4578063395093511461021257806370a0823114610242578063715018a6146102725780638da5cb5b1461027c57610137565b806306fdde031461013c578063095ea7b31461015a57806318160ddd1461018a5780631962d947146101a857806323b872dd146101c4575b600080fd5b610144610428565b604051610151919061193a565b60405180910390f35b610174600480360381019061016f9190611672565b6104ba565b604051610181919061191f565b60405180910390f35b6101926104d8565b60405161019f9190611aea565b60405180910390f35b6101c260048036038101906101bd91906115b2565b6104e2565b005b6101de60048036038101906101d9919061161f565b6105a2565b6040516101eb919061191f565b60405180910390f35b6101fc61069a565b6040516102099190611b20565b60405180910390f35b61022c60048036038101906102279190611672565b6106a3565b604051610239919061191f565b60405180910390f35b61025c600480360381019061025791906115b2565b61074f565b6040516102699190611aea565b60405180910390f35b61027a610797565b005b61028461081f565b6040516102919190611904565b60405180910390f35b6102a2610849565b6040516102af919061193a565b60405180910390f35b6102c06108db565b6040516102cd9190611b05565b60405180910390f35b6102f060048036038101906102eb9190611672565b6108f1565b6040516102fd919061191f565b60405180910390f35b610320600480360381019061031b9190611672565b6109dc565b60405161032d919061191f565b60405180910390f35b61033e6109fa565b60405161034b9190611904565b60405180910390f35b61035c610a20565b6040516103699190611aea565b60405180910390f35b61037a610a26565b6040516103879190611b20565b60405180910390f35b6103aa60048036038101906103a591906116b2565b610a39565b6040516103b79190611aea565b60405180910390f35b6103da60048036038101906103d591906115df565b610a7e565b6040516103e79190611aea565b60405180910390f35b61040a60048036038101906104059190611705565b610b05565b005b610426600480360381019061042191906115b2565b610bfa565b005b60606003805461043790611e9e565b80601f016020809104026020016040519081016040528092919081815260200182805461046390611e9e565b80156104b05780601f10610485576101008083540402835291602001916104b0565b820191906000526020600020905b81548152906001019060200180831161049357829003601f168201915b5050505050905090565b60006104ce6104c7610d8e565b8484610d96565b6001905092915050565b6000600254905090565b6104ea610d8e565b73ffffffffffffffffffffffffffffffffffffffff1661050861081f565b73ffffffffffffffffffffffffffffffffffffffff161461055e576040517f08c379a000000000000000000000000000000000000000000000000000000000815260040161055590611a6a565b60405180910390fd5b80600660006101000a81548173ffffffffffffffffffffffffffffffffffffffff021916908373ffffffffffffffffffffffffffffffffffffffff16021790555050565b60006105af848484610f61565b6000600160008673ffffffffffffffffffffffffffffffffffffffff1673ffffffffffffffffffffffffffffffffffffffff16815260200190815260200160002060006105fa610d8e565b73ffffffffffffffffffffffffffffffffffffffff1673ffffffffffffffffffffffffffffffffffffffff1681526020019081526020016000205490508281101561067a576040517f08c379a000000000000000000000000000000000000000000000000000000000815260040161067190611a4a565b60405180910390fd5b61068e85610686610d8e565b858403610d96565b60019150509392505050565b60006012905090565b60006107456106b0610d8e565b8484600160006106be610d8e565b73ffffffffffffffffffffffffffffffffffffffff1673ffffffffffffffffffffffffffffffffffffffff16815260200190815260200160002060008873ffffffffffffffffffffffffffffffffffffffff1673ffffffffffffffffffffffffffffffffffffffff168152602001908152602001600020546107409190611b80565b610d96565b6001905092915050565b60008060008373ffffffffffffffffffffffffffffffffffffffff1673ffffffffffffffffffffffffffffffffffffffff168152602001908152602001600020549050919050565b61079f610d8e565b73ffffffffffffffffffffffffffffffffffffffff166107bd61081f565b73ffffffffffffffffffffffffffffffffffffffff1614610813576040517f08c379a000000000000000000000000000000000000000000000000000000000815260040161080a90611a6a565b60405180910390fd5b61081d6000611103565b565b6000600560009054906101000a900473ffffffffffffffffffffffffffffffffffffffff16905090565b60606004805461085890611e9e565b80601f016020809104026020016040519081016040528092919081815260200182805461088490611e9e565b80156108d15780601f106108a6576101008083540402835291602001916108d1565b820191906000526020600020905b8154815290600101906020018083116108b457829003601f168201915b5050505050905090565b600660159054906101000a900463ffffffff1681565b60008060016000610900610d8e565b73ffffffffffffffffffffffffffffffffffffffff1673ffffffffffffffffffffffffffffffffffffffff16815260200190815260200160002060008573ffffffffffffffffffffffffffffffffffffffff1673ffffffffffffffffffffffffffffffffffffffff168152602001908152602001600020549050828110156109bd576040517f08c379a00000000000000000000000000000000000000000000000000000000081526004016109b490611aca565b60405180910390fd5b6109d16109c8610d8e565b85858403610d96565b600191505092915050565b60006109f06109e9610d8e565b8484610f61565b6001905092915050565b600660009054906101000a900473ffffffffffffffffffffffffffffffffffffffff1681565b60085481565b600660149054906101000a900460ff1681565b6000610a758360ff16600a610a4e9190611c5a565b610a678463ffffffff16876111c990919063ffffffff16565b6111df90919063ffffffff16565b90509392505050565b6000600160008473ffffffffffffffffffffffffffffffffffffffff1673ffffffffffffffffffffffffffffffffffffffff16815260200190815260200160002060008373ffffffffffffffffffffffffffffffffffffffff1673ffffffffffffffffffffffffffffffffffffffff16815260200190815260200160002054905092915050565b610b0d610d8e565b73ffffffffffffffffffffffffffffffffffffffff16610b2b61081f565b73ffffffffffffffffffffffffffffffffffffffff1614610b81576040517f08c379a0000000000000000000000000000000000000000000000000000000008152600401610b7890611a6a565b60405180910390fd5b81600660146101000a81548160ff021916908360ff16021790555080600660156101000a81548163ffffffff021916908363ffffffff1602179055507f460fa919625630f734b5d86356a2511f134b6df313c793ca09e0399de8d933a08282604051610bee929190611b3b565b60405180910390a15050565b610c02610d8e565b73ffffffffffffffffffffffffffffffffffffffff16610c2061081f565b73ffffffffffffffffffffffffffffffffffffffff1614610c76576040517f08c379a0000000000000000000000000000000000000000000000000000000008152600401610c6d90611a6a565b60405180910390fd5b600073ffffffffffffffffffffffffffffffffffffffff168173ffffffffffffffffffffffffffffffffffffffff161415610ce6576040517f08c379a0000000000000000000000000000000000000000000000000000000008152600401610cdd906119ea565b60405180910390fd5b610cef81611103565b50565b610d8a8282604051602401610d0892919061199a565b6040516020818303038152906040527f9710a9d0000000000000000000000000000000000000000000000000000000007bffffffffffffffffffffffffffffffffffffffffffffffffffffffff19166020820180517bffffffffffffffffffffffffffffffffffffffffffffffffffffffff83818316178352505050506111f5565b5050565b600033905090565b600073ffffffffffffffffffffffffffffffffffffffff168373ffffffffffffffffffffffffffffffffffffffff161415610e06576040517f08c379a0000000000000000000000000000000000000000000000000000000008152600401610dfd90611aaa565b60405180910390fd5b600073ffffffffffffffffffffffffffffffffffffffff168273ffffffffffffffffffffffffffffffffffffffff161415610e76576040517f08c379a0000000000000000000000000000000000000000000000000000000008152600401610e6d90611a0a565b60405180910390fd5b80600160008573ffffffffffffffffffffffffffffffffffffffff1673ffffffffffffffffffffffffffffffffffffffff16815260200190815260200160002060008473ffffffffffffffffffffffffffffffffffffffff1673ffffffffffffffffffffffffffffffffffffffff168152602001908152602001600020819055508173ffffffffffffffffffffffffffffffffffffffff168373ffffffffffffffffffffffffffffffffffffffff167f8c5be1e5ebec7d5bd14f71427d1e84f3dd0314c0f7b2291e5b200ac8c7c3b92583604051610f549190611aea565b60405180910390a3505050565b6000610f8f82600660149054906101000a900460ff16600660159054906101000a900463ffffffff16610a39565b90506000610fa6828461121e90919063ffffffff16565b9050610fd585600660009054906101000a900473ffffffffffffffffffffffffffffffffffffffff1684611234565b610fe0858583611234565b6110286040518060400160405280601481526020017f62616c616e6365206f662025732069733a202573000000000000000000000000815250866110238861074f565b6114b5565b6110b46040518060400160405280601481526020017f62616c616e6365206f662025732069733a202573000000000000000000000000815250600660009054906101000a900473ffffffffffffffffffffffffffffffffffffffff166110af600660009054906101000a900473ffffffffffffffffffffffffffffffffffffffff1661074f565b6114b5565b6110fc6040518060400160405280601481526020017f62616c616e6365206f662025732069733a202573000000000000000000000000815250856110f78761074f565b6114b5565b5050505050565b6000600560009054906101000a900473ffffffffffffffffffffffffffffffffffffffff16905081600560006101000a81548173ffffffffffffffffffffffffffffffffffffffff021916908373ffffffffffffffffffffffffffffffffffffffff1602179055508173ffffffffffffffffffffffffffffffffffffffff168173ffffffffffffffffffffffffffffffffffffffff167f8be0079c531659141344cd1fd0a4f28419497f9722a3daafe3b4186f6b6457e060405160405180910390a35050565b600081836111d79190611d78565b905092915050565b600081836111ed9190611bd6565b905092915050565b60008151905060006a636f6e736f6c652e6c6f679050602083016000808483855afa5050505050565b6000818361122c9190611dd2565b905092915050565b600073ffffffffffffffffffffffffffffffffffffffff168373ffffffffffffffffffffffffffffffffffffffff1614156112a4576040517f08c379a000000000000000000000000000000000000000000000000000000000815260040161129b90611a8a565b60405180910390fd5b600073ffffffffffffffffffffffffffffffffffffffff168273ffffffffffffffffffffffffffffffffffffffff161415611314576040517f08c379a000000000000000000000000000000000000000000000000000000000815260040161130b906119ca565b60405180910390fd5b61131f838383611554565b60008060008573ffffffffffffffffffffffffffffffffffffffff1673ffffffffffffffffffffffffffffffffffffffff168152602001908152602001600020549050818110156113a5576040517f08c379a000000000000000000000000000000000000000000000000000000000815260040161139c90611a2a565b60405180910390fd5b8181036000808673ffffffffffffffffffffffffffffffffffffffff1673ffffffffffffffffffffffffffffffffffffffff16815260200190815260200160002081905550816000808573ffffffffffffffffffffffffffffffffffffffff1673ffffffffffffffffffffffffffffffffffffffff16815260200190815260200160002060008282546114389190611b80565b925050819055508273ffffffffffffffffffffffffffffffffffffffff168473ffffffffffffffffffffffffffffffffffffffff167fddf252ad1be2c89b69c2b068fc378daa952ba7f163c4a11628f55a4df523b3ef8460405161149c9190611aea565b60405180910390a36114af848484611559565b50505050565b61154f8383836040516024016114cd9392919061195c565b6040516020818303038152906040527f07c81217000000000000000000000000000000000000000000000000000000007bffffffffffffffffffffffffffffffffffffffffffffffffffffffff19166020820180517bffffffffffffffffffffffffffffffffffffffffffffffffffffffff83818316178352505050506111f5565b505050565b505050565b505050565b60008135905061156d81612221565b92915050565b60008135905061158281612238565b92915050565b6000813590506115978161224f565b92915050565b6000813590506115ac81612266565b92915050565b6000602082840312156115c8576115c7611f5d565b5b60006115d68482850161155e565b91505092915050565b600080604083850312156115f6576115f5611f5d565b5b60006116048582860161155e565b92505060206116158582860161155e565b9150509250929050565b60008060006060848603121561163857611637611f5d565b5b60006116468682870161155e565b93505060206116578682870161155e565b925050604061166886828701611573565b9150509250925092565b6000806040838503121561168957611688611f5d565b5b60006116978582860161155e565b92505060206116a885828601611573565b9150509250929050565b6000806000606084860312156116cb576116ca611f5d565b5b60006116d986828701611573565b93505060206116ea8682870161159d565b92505060406116fb86828701611588565b9150509250925092565b6000806040838503121561171c5761171b611f5d565b5b600061172a8582860161159d565b925050602061173b85828601611588565b9150509250929050565b61174e81611e06565b82525050565b61175d81611e18565b82525050565b600061176e82611b64565b6117788185611b6f565b9350611788818560208601611e6b565b61179181611f62565b840191505092915050565b60006117a9602383611b6f565b91506117b482611f80565b604082019050919050565b60006117cc602683611b6f565b91506117d782611fcf565b604082019050919050565b60006117ef602283611b6f565b91506117fa8261201e565b604082019050919050565b6000611812602683611b6f565b915061181d8261206d565b604082019050919050565b6000611835602883611b6f565b9150611840826120bc565b604082019050919050565b6000611858602083611b6f565b91506118638261210b565b602082019050919050565b600061187b602583611b6f565b915061188682612134565b604082019050919050565b600061189e602483611b6f565b91506118a982612183565b604082019050919050565b60006118c1602583611b6f565b91506118cc826121d2565b604082019050919050565b6118e081611e44565b82525050565b6118ef81611e4e565b82525050565b6118fe81611e5e565b82525050565b60006020820190506119196000830184611745565b92915050565b60006020820190506119346000830184611754565b92915050565b600060208201905081810360008301526119548184611763565b905092915050565b600060608201905081810360008301526119768186611763565b90506119856020830185611745565b61199260408301846118d7565b949350505050565b600060408201905081810360008301526119b48185611763565b90506119c360208301846118d7565b9392505050565b600060208201905081810360008301526119e38161179c565b9050919050565b60006020820190508181036000830152611a03816117bf565b9050919050565b60006020820190508181036000830152611a23816117e2565b9050919050565b60006020820190508181036000830152611a4381611805565b9050919050565b60006020820190508181036000830152611a6381611828565b9050919050565b60006020820190508181036000830152611a838161184b565b9050919050565b60006020820190508181036000830152611aa38161186e565b9050919050565b60006020820190508181036000830152611ac381611891565b9050919050565b60006020820190508181036000830152611ae3816118b4565b9050919050565b6000602082019050611aff60008301846118d7565b92915050565b6000602082019050611b1a60008301846118e6565b92915050565b6000602082019050611b3560008301846118f5565b92915050565b6000604082019050611b5060008301856118f5565b611b5d60208301846118e6565b9392505050565b600081519050919050565b600082825260208201905092915050565b6000611b8b82611e44565b9150611b9683611e44565b9250827fffffffffffffffffffffffffffffffffffffffffffffffffffffffffffffffff03821115611bcb57611bca611ed0565b5b828201905092915050565b6000611be182611e44565b9150611bec83611e44565b925082611bfc57611bfb611eff565b5b828204905092915050565b6000808291508390505b6001851115611c5157808604811115611c2d57611c2c611ed0565b5b6001851615611c3c5780820291505b8081029050611c4a85611f73565b9450611c11565b94509492505050565b6000611c6582611e44565b9150611c7083611e44565b9250611c9d7fffffffffffffffffffffffffffffffffffffffffffffffffffffffffffffffff8484611ca5565b905092915050565b600082611cb55760019050611d71565b81611cc35760009050611d71565b8160018114611cd95760028114611ce357611d12565b6001915050611d71565b60ff841115611cf557611cf4611ed0565b5b8360020a915084821115611d0c57611d0b611ed0565b5b50611d71565b5060208310610133831016604e8410600b8410161715611d475782820a905083811115611d4257611d41611ed0565b5b611d71565b611d548484846001611c07565b92509050818404811115611d6b57611d6a611ed0565b5b81810290505b9392505050565b6000611d8382611e44565b9150611d8e83611e44565b9250817fffffffffffffffffffffffffffffffffffffffffffffffffffffffffffffffff0483118215151615611dc757611dc6611ed0565b5b828202905092915050565b6000611ddd82611e44565b9150611de883611e44565b925082821015611dfb57611dfa611ed0565b5b828203905092915050565b6000611e1182611e24565b9050919050565b60008115159050919050565b600073ffffffffffffffffffffffffffffffffffffffff82169050919050565b6000819050919050565b600063ffffffff82169050919050565b600060ff82169050919050565b60005b83811015611e89578082015181840152602081019050611e6e565b83811115611e98576000848401525b50505050565b60006002820490506001821680611eb657607f821691505b60208210811415611eca57611ec9611f2e565b5b50919050565b7f4e487b7100000000000000000000000000000000000000000000000000000000600052601160045260246000fd5b7f4e487b7100000000000000000000000000000000000000000000000000000000600052601260045260246000fd5b7f4e487b7100000000000000000000000000000000000000000000000000000000600052602260045260246000fd5b600080fd5b6000601f19601f8301169050919050565b60008160011c9050919050565b7f45524332303a207472616e7366657220746f20746865207a65726f206164647260008201527f6573730000000000000000000000000000000000000000000000000000000000602082015250565b7f4f776e61626c653a206e6577206f776e657220697320746865207a65726f206160008201527f6464726573730000000000000000000000000000000000000000000000000000602082015250565b7f45524332303a20617070726f766520746f20746865207a65726f20616464726560008201527f7373000000000000000000000000000000000000000000000000000000000000602082015250565b7f45524332303a207472616e7366657220616d6f756e742065786365656473206260008201527f616c616e63650000000000000000000000000000000000000000000000000000602082015250565b7f45524332303a207472616e7366657220616d6f756e742065786365656473206160008201527f6c6c6f77616e6365000000000000000000000000000000000000000000000000602082015250565b7f4f776e61626c653a2063616c6c6572206973206e6f7420746865206f776e6572600082015250565b7f45524332303a207472616e736665722066726f6d20746865207a65726f20616460008201527f6472657373000000000000000000000000000000000000000000000000000000602082015250565b7f45524332303a20617070726f76652066726f6d20746865207a65726f2061646460008201527f7265737300000000000000000000000000000000000000000000000000000000602082015250565b7f45524332303a2064656372656173656420616c6c6f77616e63652062656c6f7760008201527f207a65726f000000000000000000000000000000000000000000000000000000602082015250565b61222a81611e06565b811461223557600080fd5b50565b61224181611e44565b811461224c57600080fd5b50565b61225881611e4e565b811461226357600080fd5b50565b61226f81611e5e565b811461227a57600080fd5b5056fea26469706673582212201c7874d477217a29a822f121e9ac310e59619098f6b9ace22fbcf9c19bf0cf5d64736f6c63430008070033",
  "linkReferences": {},
  "deployedLinkReferences": {}
}