{
  "_format": "hh-sol-artifact-1",
  "contractName": "Tax",
  "sourceName": "contracts/Tax.sol",
  "abi": [
    {
      "inputs": [
        {
          "internalType": "uint8",
          "name": "_feeDecimals",
          "type": "uint8"
        },
        {
          "internalType": "uint32",
          "name": "_feePercentage",
          "type": "uint32"
        }
      ],
      "stateMutability": "nonpayable",
      "type": "constructor"
    },
    {
      "anonymous": false,
      "inputs": [
        {
          "indexed": true,
          "internalType": "address",
          "name": "owner",
          "type": "address"
        },
        {
          "indexed": true,
          "internalType": "address",
          "name": "spender",
          "type": "address"
        },
        {
          "indexed": false,
          "internalType": "uint256",
          "name": "value",
          "type": "uint256"
        }
      ],
      "name": "Approval",
      "type": "event"
    },
    {
      "anonymous": false,
      "inputs": [
        {
          "indexed": false,
          "internalType": "uint8",
          "name": "feeDecimals",
          "type": "uint8"
        },
        {
          "indexed": false,
          "internalType": "uint32",
          "name": "feePercentage",
          "type": "uint32"
        }
      ],
      "name": "FeeUpdated",
      "type": "event"
    },
    {
      "anonymous": false,
      "inputs": [
        {
          "indexed": true,
          "internalType": "address",
          "name": "previousOwner",
          "type": "address"
        },
        {
          "indexed": true,
          "internalType": "address",
          "name": "newOwner",
          "type": "address"
        }
      ],
      "name": "OwnershipTransferred",
      "type": "event"
    },
    {
      "anonymous": false,
      "inputs": [
        {
          "indexed": true,
          "internalType": "address",
          "name": "from",
          "type": "address"
        },
        {
          "indexed": true,
          "internalType": "address",
          "name": "to",
          "type": "address"
        },
        {
          "indexed": false,
          "internalType": "uint256",
          "name": "value",
          "type": "uint256"
        }
      ],
      "name": "Transfer",
      "type": "event"
    },
    {
      "inputs": [],
      "name": "_totalTaxedTokens",
      "outputs": [
        {
          "internalType": "uint256",
          "name": "",
          "type": "uint256"
        }
      ],
      "stateMutability": "view",
      "type": "function"
    },
    {
      "inputs": [
        {
          "internalType": "address",
          "name": "owner",
          "type": "address"
        },
        {
          "internalType": "address",
          "name": "spender",
          "type": "address"
        }
      ],
      "name": "allowance",
      "outputs": [
        {
          "internalType": "uint256",
          "name": "",
          "type": "uint256"
        }
      ],
      "stateMutability": "view",
      "type": "function"
    },
    {
      "inputs": [
        {
          "internalType": "address",
          "name": "spender",
          "type": "address"
        },
        {
          "internalType": "uint256",
          "name": "amount",
          "type": "uint256"
        }
      ],
      "name": "approve",
      "outputs": [
        {
          "internalType": "bool",
          "name": "",
          "type": "bool"
        }
      ],
      "stateMutability": "nonpayable",
      "type": "function"
    },
    {
      "inputs": [
        {
          "internalType": "address",
          "name": "account",
          "type": "address"
        }
      ],
      "name": "balanceOf",
      "outputs": [
        {
          "internalType": "uint256",
          "name": "",
          "type": "uint256"
        }
      ],
      "stateMutability": "view",
      "type": "function"
    },
    {
      "inputs": [
        {
          "internalType": "uint256",
          "name": "_amount",
          "type": "uint256"
        },
        {
          "internalType": "uint8",
          "name": "_feeDecimals",
          "type": "uint8"
        },
        {
          "internalType": "uint32",
          "name": "_feePercentage",
          "type": "uint32"
        }
      ],
      "name": "calculateTokenTax",
      "outputs": [
        {
          "internalType": "uint256",
          "name": "taxed",
          "type": "uint256"
        }
      ],
      "stateMutability": "pure",
      "type": "function"
    },
    {
      "inputs": [],
      "name": "decimals",
      "outputs": [
        {
          "internalType": "uint8",
          "name": "",
          "type": "uint8"
        }
      ],
      "stateMutability": "view",
      "type": "function"
    },
    {
      "inputs": [
        {
          "internalType": "address",
          "name": "spender",
          "type": "address"
        },
        {
          "internalType": "uint256",
          "name": "subtractedValue",
          "type": "uint256"
        }
      ],
      "name": "decreaseAllowance",
      "outputs": [
        {
          "internalType": "bool",
          "name": "",
          "type": "bool"
        }
      ],
      "stateMutability": "nonpayable",
      "type": "function"
    },
    {
      "inputs": [],
      "name": "feeDecimals",
      "outputs": [
        {
          "internalType": "uint8",
          "name": "",
          "type": "uint8"
        }
      ],
      "stateMutability": "view",
      "type": "function"
    },
    {
      "inputs": [],
      "name": "feePercentage",
      "outputs": [
        {
          "internalType": "uint32",
          "name": "",
          "type": "uint32"
        }
      ],
      "stateMutability": "view",
      "type": "function"
    },
    {
      "inputs": [
        {
          "internalType": "address",
          "name": "spender",
          "type": "address"
        },
        {
          "internalType": "uint256",
          "name": "addedValue",
          "type": "uint256"
        }
      ],
      "name": "increaseAllowance",
      "outputs": [
        {
          "internalType": "bool",
          "name": "",
          "type": "bool"
        }
      ],
      "stateMutability": "nonpayable",
      "type": "function"
    },
    {
      "inputs": [],
      "name": "name",
      "outputs": [
        {
          "internalType": "string",
          "name": "",
          "type": "string"
        }
      ],
      "stateMutability": "view",
      "type": "function"
    },
    {
      "inputs": [],
      "name": "owner",
      "outputs": [
        {
          "internalType": "address",
          "name": "",
          "type": "address"
        }
      ],
      "stateMutability": "view",
      "type": "function"
    },
    {
      "inputs": [],
      "name": "renounceOwnership",
      "outputs": [],
      "stateMutability": "nonpayable",
      "type": "function"
    },
    {
      "inputs": [],
      "name": "symbol",
      "outputs": [
        {
          "internalType": "string",
          "name": "",
          "type": "string"
        }
      ],
      "stateMutability": "view",
      "type": "function"
    },
    {
      "inputs": [],
      "name": "taxCollector",
      "outputs": [
        {
          "internalType": "address",
          "name": "",
          "type": "address"
        }
      ],
      "stateMutability": "view",
      "type": "function"
    },
    {
      "inputs": [],
      "name": "totalSupply",
      "outputs": [
        {
          "internalType": "uint256",
          "name": "",
          "type": "uint256"
        }
      ],
      "stateMutability": "view",
      "type": "function"
    },
    {
      "inputs": [
        {
          "internalType": "address",
          "name": "recipient",
          "type": "address"
        },
        {
          "internalType": "uint256",
          "name": "amount",
          "type": "uint256"
        }
      ],
      "name": "transfer",
      "outputs": [
        {
          "internalType": "bool",
          "name": "",
          "type": "bool"
        }
      ],
      "stateMutability": "nonpayable",
      "type": "function"
    },
    {
      "inputs": [
        {
          "internalType": "address",
          "name": "sender",
          "type": "address"
        },
        {
          "internalType": "address",
          "name": "recipient",
          "type": "address"
        },
        {
          "internalType": "uint256",
          "name": "amount",
          "type": "uint256"
        }
      ],
      "name": "transferFrom",
      "outputs": [
        {
          "internalType": "bool",
          "name": "",
          "type": "bool"
        }
      ],
      "stateMutability": "nonpayable",
      "type": "function"
    },
    {
      "inputs": [
        {
          "internalType": "address",
          "name": "newOwner",
          "type": "address"
        }
      ],
      "name": "transferOwnership",
      "outputs": [],
      "stateMutability": "nonpayable",
      "type": "function"
    },
    {
      "inputs": [
        {
          "internalType": "uint8",
          "name": "_feeDecimals",
          "type": "uint8"
        },
        {
          "internalType": "uint32",
          "name": "_feePercentage",
          "type": "uint32"
        }
      ],
      "name": "updateFee",
      "outputs": [],
      "stateMutability": "nonpayable",
      "type": "function"
    },
    {
      "inputs": [
        {
          "internalType": "address",
          "name": "_newTaxCollector",
          "type": "address"
        }
      ],
      "name": "updateTaxCollector",
      "outputs": [],
      "stateMutability": "nonpayable",
      "type": "function"
    }
  ],
  "bytecode": "0x60806040526000600660006101000a81548173ffffffffffffffffffffffffffffffffffffffff021916908373ffffffffffffffffffffffffffffffffffffffff1602179055503480156200005357600080fd5b5060405162002de438038062002de4833981810160405281019062000079919062000744565b6040518060400160405280600481526020017f54617865000000000000000000000000000000000000000000000000000000008152506040518060400160405280600381526020017f54415800000000000000000000000000000000000000000000000000000000008152508160039080519060200190620000fd92919062000666565b5080600490805190602001906200011692919062000666565b505050620001396200012d620001ca60201b60201c565b620001d260201b60201c565b6200015433683635c9adc5dea000006200029860201b60201c565b620001b06040518060400160405280601381526020017f4f776e657220616d6f756e742069732025733a000000000000000000000000008152506200019f336200041160201b60201c565b6200045960201b62000cfe1760201c565b620001c28282620004ff60201b60201c565b505062000b15565b600033905090565b6000600560009054906101000a900473ffffffffffffffffffffffffffffffffffffffff16905081600560006101000a81548173ffffffffffffffffffffffffffffffffffffffff021916908373ffffffffffffffffffffffffffffffffffffffff1602179055508173ffffffffffffffffffffffffffffffffffffffff168173ffffffffffffffffffffffffffffffffffffffff167f8be0079c531659141344cd1fd0a4f28419497f9722a3daafe3b4186f6b6457e060405160405180910390a35050565b600073ffffffffffffffffffffffffffffffffffffffff168273ffffffffffffffffffffffffffffffffffffffff1614156200030b576040517f08c379a00000000000000000000000000000000000000000000000000000000081526004016200030290620008a3565b60405180910390fd5b6200031f600083836200060960201b60201c565b80600260008282546200033391906200092b565b92505081905550806000808473ffffffffffffffffffffffffffffffffffffffff1673ffffffffffffffffffffffffffffffffffffffff16815260200190815260200160002060008282546200038a91906200092b565b925050819055508173ffffffffffffffffffffffffffffffffffffffff16600073ffffffffffffffffffffffffffffffffffffffff167fddf252ad1be2c89b69c2b068fc378daa952ba7f163c4a11628f55a4df523b3ef83604051620003f19190620008c5565b60405180910390a36200040d600083836200060e60201b60201c565b5050565b60008060008373ffffffffffffffffffffffffffffffffffffffff1673ffffffffffffffffffffffffffffffffffffffff168152602001908152602001600020549050919050565b620004fb8282604051602401620004729291906200084d565b6040516020818303038152906040527f9710a9d0000000000000000000000000000000000000000000000000000000007bffffffffffffffffffffffffffffffffffffffffffffffffffffffff19166020820180517bffffffffffffffffffffffffffffffffffffffffffffffffffffffff83818316178352505050506200061360201b60201c565b5050565b6200050f620001ca60201b60201c565b73ffffffffffffffffffffffffffffffffffffffff16620005356200063c60201b60201c565b73ffffffffffffffffffffffffffffffffffffffff16146200058e576040517f08c379a0000000000000000000000000000000000000000000000000000000008152600401620005859062000881565b60405180910390fd5b81600660146101000a81548160ff021916908360ff16021790555080600660156101000a81548163ffffffff021916908363ffffffff1602179055507f460fa919625630f734b5d86356a2511f134b6df313c793ca09e0399de8d933a08282604051620005fd929190620008e2565b60405180910390a15050565b505050565b505050565b60008151905060006a636f6e736f6c652e6c6f679050602083016000808483855afa5050505050565b6000600560009054906101000a900473ffffffffffffffffffffffffffffffffffffffff16905090565b8280546200067490620009e5565b90600052602060002090601f016020900481019282620006985760008555620006e4565b82601f10620006b357805160ff1916838001178555620006e4565b82800160010185558215620006e4579182015b82811115620006e3578251825591602001919060010190620006c6565b5b509050620006f39190620006f7565b5090565b5b8082111562000712576000816000905550600101620006f8565b5090565b600081519050620007278162000ae1565b92915050565b6000815190506200073e8162000afb565b92915050565b600080604083850312156200075e576200075d62000a79565b5b60006200076e858286016200072d565b9250506020620007818582860162000716565b9150509250929050565b600062000798826200090f565b620007a481856200091a565b9350620007b6818560208601620009af565b620007c18162000a7e565b840191505092915050565b6000620007db6020836200091a565b9150620007e88262000a8f565b602082019050919050565b600062000802601f836200091a565b91506200080f8262000ab8565b602082019050919050565b620008258162000988565b82525050565b620008368162000992565b82525050565b6200084781620009a2565b82525050565b600060408201905081810360008301526200086981856200078b565b90506200087a60208301846200081a565b9392505050565b600060208201905081810360008301526200089c81620007cc565b9050919050565b60006020820190508181036000830152620008be81620007f3565b9050919050565b6000602082019050620008dc60008301846200081a565b92915050565b6000604082019050620008f960008301856200083c565b6200090860208301846200082b565b9392505050565b600081519050919050565b600082825260208201905092915050565b6000620009388262000988565b9150620009458362000988565b9250827fffffffffffffffffffffffffffffffffffffffffffffffffffffffffffffffff038211156200097d576200097c62000a1b565b5b828201905092915050565b6000819050919050565b600063ffffffff82169050919050565b600060ff82169050919050565b60005b83811015620009cf578082015181840152602081019050620009b2565b83811115620009df576000848401525b50505050565b60006002820490506001821680620009fe57607f821691505b6020821081141562000a155762000a1462000a4a565b5b50919050565b7f4e487b7100000000000000000000000000000000000000000000000000000000600052601160045260246000fd5b7f4e487b7100000000000000000000000000000000000000000000000000000000600052602260045260246000fd5b600080fd5b6000601f19601f8301169050919050565b7f4f776e61626c653a2063616c6c6572206973206e6f7420746865206f776e6572600082015250565b7f45524332303a206d696e7420746f20746865207a65726f206164647265737300600082015250565b62000aec8162000992565b811462000af857600080fd5b50565b62000b0681620009a2565b811462000b1257600080fd5b50565b6122bf8062000b256000396000f3fe608060405234801561001057600080fd5b50600436106101375760003560e01c806395d89b41116100b8578063c39195861161007c578063c391958614610354578063cc0f178614610372578063d11122f814610390578063dd62ed3e146103c0578063eaa93e78146103f0578063f2fde38b1461040c57610137565b806395d89b411461029a578063a001ecdd146102b8578063a457c2d7146102d6578063a9059cbb14610306578063bea1dcf81461033657610137565b8063313ce567116100ff578063313ce567146101f4578063395093511461021257806370a0823114610242578063715018a6146102725780638da5cb5b1461027c57610137565b806306fdde031461013c578063095ea7b31461015a57806318160ddd1461018a5780631962d947146101a857806323b872dd146101c4575b600080fd5b610144610428565b6040516101519190611946565b60405180910390f35b610174600480360381019061016f919061167e565b6104ba565b604051610181919061192b565b60405180910390f35b6101926104d8565b60405161019f9190611af6565b60405180910390f35b6101c260048036038101906101bd91906115be565b6104e2565b005b6101de60048036038101906101d9919061162b565b6105a2565b6040516101eb919061192b565b60405180910390f35b6101fc61069a565b6040516102099190611b2c565b60405180910390f35b61022c6004803603810190610227919061167e565b6106a3565b604051610239919061192b565b60405180910390f35b61025c600480360381019061025791906115be565b61074f565b6040516102699190611af6565b60405180910390f35b61027a610797565b005b61028461081f565b6040516102919190611910565b60405180910390f35b6102a2610849565b6040516102af9190611946565b60405180910390f35b6102c06108db565b6040516102cd9190611b11565b60405180910390f35b6102f060048036038101906102eb919061167e565b6108f1565b6040516102fd919061192b565b60405180910390f35b610320600480360381019061031b919061167e565b6109dc565b60405161032d919061192b565b60405180910390f35b61033e6109fa565b60405161034b9190611910565b60405180910390f35b61035c610a20565b6040516103699190611af6565b60405180910390f35b61037a610a26565b6040516103879190611b2c565b60405180910390f35b6103aa60048036038101906103a591906116be565b610a39565b6040516103b79190611af6565b60405180910390f35b6103da60048036038101906103d591906115eb565b610a8a565b6040516103e79190611af6565b60405180910390f35b61040a60048036038101906104059190611711565b610b11565b005b610426600480360381019061042191906115be565b610c06565b005b60606003805461043790611eaa565b80601f016020809104026020016040519081016040528092919081815260200182805461046390611eaa565b80156104b05780601f10610485576101008083540402835291602001916104b0565b820191906000526020600020905b81548152906001019060200180831161049357829003601f168201915b5050505050905090565b60006104ce6104c7610d9a565b8484610da2565b6001905092915050565b6000600254905090565b6104ea610d9a565b73ffffffffffffffffffffffffffffffffffffffff1661050861081f565b73ffffffffffffffffffffffffffffffffffffffff161461055e576040517f08c379a000000000000000000000000000000000000000000000000000000000815260040161055590611a76565b60405180910390fd5b80600660006101000a81548173ffffffffffffffffffffffffffffffffffffffff021916908373ffffffffffffffffffffffffffffffffffffffff16021790555050565b60006105af848484610f6d565b6000600160008673ffffffffffffffffffffffffffffffffffffffff1673ffffffffffffffffffffffffffffffffffffffff16815260200190815260200160002060006105fa610d9a565b73ffffffffffffffffffffffffffffffffffffffff1673ffffffffffffffffffffffffffffffffffffffff1681526020019081526020016000205490508281101561067a576040517f08c379a000000000000000000000000000000000000000000000000000000000815260040161067190611a56565b60405180910390fd5b61068e85610686610d9a565b858403610da2565b60019150509392505050565b60006012905090565b60006107456106b0610d9a565b8484600160006106be610d9a565b73ffffffffffffffffffffffffffffffffffffffff1673ffffffffffffffffffffffffffffffffffffffff16815260200190815260200160002060008873ffffffffffffffffffffffffffffffffffffffff1673ffffffffffffffffffffffffffffffffffffffff168152602001908152602001600020546107409190611b8c565b610da2565b6001905092915050565b60008060008373ffffffffffffffffffffffffffffffffffffffff1673ffffffffffffffffffffffffffffffffffffffff168152602001908152602001600020549050919050565b61079f610d9a565b73ffffffffffffffffffffffffffffffffffffffff166107bd61081f565b73ffffffffffffffffffffffffffffffffffffffff1614610813576040517f08c379a000000000000000000000000000000000000000000000000000000000815260040161080a90611a76565b60405180910390fd5b61081d600061110f565b565b6000600560009054906101000a900473ffffffffffffffffffffffffffffffffffffffff16905090565b60606004805461085890611eaa565b80601f016020809104026020016040519081016040528092919081815260200182805461088490611eaa565b80156108d15780601f106108a6576101008083540402835291602001916108d1565b820191906000526020600020905b8154815290600101906020018083116108b457829003601f168201915b5050505050905090565b600660159054906101000a900463ffffffff1681565b60008060016000610900610d9a565b73ffffffffffffffffffffffffffffffffffffffff1673ffffffffffffffffffffffffffffffffffffffff16815260200190815260200160002060008573ffffffffffffffffffffffffffffffffffffffff1673ffffffffffffffffffffffffffffffffffffffff168152602001908152602001600020549050828110156109bd576040517f08c379a00000000000000000000000000000000000000000000000000000000081526004016109b490611ad6565b60405180910390fd5b6109d16109c8610d9a565b85858403610da2565b600191505092915050565b60006109f06109e9610d9a565b8484610f6d565b6001905092915050565b600660009054906101000a900473ffffffffffffffffffffffffffffffffffffffff1681565b60085481565b600660149054906101000a900460ff1681565b6000610a8160028460ff16610a4e9190611b8c565b600a610a5a9190611c66565b610a738463ffffffff16876111d590919063ffffffff16565b6111eb90919063ffffffff16565b90509392505050565b6000600160008473ffffffffffffffffffffffffffffffffffffffff1673ffffffffffffffffffffffffffffffffffffffff16815260200190815260200160002060008373ffffffffffffffffffffffffffffffffffffffff1673ffffffffffffffffffffffffffffffffffffffff16815260200190815260200160002054905092915050565b610b19610d9a565b73ffffffffffffffffffffffffffffffffffffffff16610b3761081f565b73ffffffffffffffffffffffffffffffffffffffff1614610b8d576040517f08c379a0000000000000000000000000000000000000000000000000000000008152600401610b8490611a76565b60405180910390fd5b81600660146101000a81548160ff021916908360ff16021790555080600660156101000a81548163ffffffff021916908363ffffffff1602179055507f460fa919625630f734b5d86356a2511f134b6df313c793ca09e0399de8d933a08282604051610bfa929190611b47565b60405180910390a15050565b610c0e610d9a565b73ffffffffffffffffffffffffffffffffffffffff16610c2c61081f565b73ffffffffffffffffffffffffffffffffffffffff1614610c82576040517f08c379a0000000000000000000000000000000000000000000000000000000008152600401610c7990611a76565b60405180910390fd5b600073ffffffffffffffffffffffffffffffffffffffff168173ffffffffffffffffffffffffffffffffffffffff161415610cf2576040517f08c379a0000000000000000000000000000000000000000000000000000000008152600401610ce9906119f6565b60405180910390fd5b610cfb8161110f565b50565b610d968282604051602401610d149291906119a6565b6040516020818303038152906040527f9710a9d0000000000000000000000000000000000000000000000000000000007bffffffffffffffffffffffffffffffffffffffffffffffffffffffff19166020820180517bffffffffffffffffffffffffffffffffffffffffffffffffffffffff8381831617835250505050611201565b5050565b600033905090565b600073ffffffffffffffffffffffffffffffffffffffff168373ffffffffffffffffffffffffffffffffffffffff161415610e12576040517f08c379a0000000000000000000000000000000000000000000000000000000008152600401610e0990611ab6565b60405180910390fd5b600073ffffffffffffffffffffffffffffffffffffffff168273ffffffffffffffffffffffffffffffffffffffff161415610e82576040517f08c379a0000000000000000000000000000000000000000000000000000000008152600401610e7990611a16565b60405180910390fd5b80600160008573ffffffffffffffffffffffffffffffffffffffff1673ffffffffffffffffffffffffffffffffffffffff16815260200190815260200160002060008473ffffffffffffffffffffffffffffffffffffffff1673ffffffffffffffffffffffffffffffffffffffff168152602001908152602001600020819055508173ffffffffffffffffffffffffffffffffffffffff168373ffffffffffffffffffffffffffffffffffffffff167f8c5be1e5ebec7d5bd14f71427d1e84f3dd0314c0f7b2291e5b200ac8c7c3b92583604051610f609190611af6565b60405180910390a3505050565b6000610f9b82600660149054906101000a900460ff16600660159054906101000a900463ffffffff16610a39565b90506000610fb2828461122a90919063ffffffff16565b9050610fe185600660009054906101000a900473ffffffffffffffffffffffffffffffffffffffff1684611240565b610fec858583611240565b6110346040518060400160405280601481526020017f62616c616e6365206f662025732069733a2025730000000000000000000000008152508661102f8861074f565b6114c1565b6110c06040518060400160405280601481526020017f62616c616e6365206f662025732069733a202573000000000000000000000000815250600660009054906101000a900473ffffffffffffffffffffffffffffffffffffffff166110bb600660009054906101000a900473ffffffffffffffffffffffffffffffffffffffff1661074f565b6114c1565b6111086040518060400160405280601481526020017f62616c616e6365206f662025732069733a202573000000000000000000000000815250856111038761074f565b6114c1565b5050505050565b6000600560009054906101000a900473ffffffffffffffffffffffffffffffffffffffff16905081600560006101000a81548173ffffffffffffffffffffffffffffffffffffffff021916908373ffffffffffffffffffffffffffffffffffffffff1602179055508173ffffffffffffffffffffffffffffffffffffffff168173ffffffffffffffffffffffffffffffffffffffff167f8be0079c531659141344cd1fd0a4f28419497f9722a3daafe3b4186f6b6457e060405160405180910390a35050565b600081836111e39190611d84565b905092915050565b600081836111f99190611be2565b905092915050565b60008151905060006a636f6e736f6c652e6c6f679050602083016000808483855afa5050505050565b600081836112389190611dde565b905092915050565b600073ffffffffffffffffffffffffffffffffffffffff168373ffffffffffffffffffffffffffffffffffffffff1614156112b0576040517f08c379a00000000000000000000000000000000000000000000000000000000081526004016112a790611a96565b60405180910390fd5b600073ffffffffffffffffffffffffffffffffffffffff168273ffffffffffffffffffffffffffffffffffffffff161415611320576040517f08c379a0000000000000000000000000000000000000000000000000000000008152600401611317906119d6565b60405180910390fd5b61132b838383611560565b60008060008573ffffffffffffffffffffffffffffffffffffffff1673ffffffffffffffffffffffffffffffffffffffff168152602001908152602001600020549050818110156113b1576040517f08c379a00000000000000000000000000000000000000000000000000000000081526004016113a890611a36565b60405180910390fd5b8181036000808673ffffffffffffffffffffffffffffffffffffffff1673ffffffffffffffffffffffffffffffffffffffff16815260200190815260200160002081905550816000808573ffffffffffffffffffffffffffffffffffffffff1673ffffffffffffffffffffffffffffffffffffffff16815260200190815260200160002060008282546114449190611b8c565b925050819055508273ffffffffffffffffffffffffffffffffffffffff168473ffffffffffffffffffffffffffffffffffffffff167fddf252ad1be2c89b69c2b068fc378daa952ba7f163c4a11628f55a4df523b3ef846040516114a89190611af6565b60405180910390a36114bb848484611565565b50505050565b61155b8383836040516024016114d993929190611968565b6040516020818303038152906040527f07c81217000000000000000000000000000000000000000000000000000000007bffffffffffffffffffffffffffffffffffffffffffffffffffffffff19166020820180517bffffffffffffffffffffffffffffffffffffffffffffffffffffffff8381831617835250505050611201565b505050565b505050565b505050565b6000813590506115798161222d565b92915050565b60008135905061158e81612244565b92915050565b6000813590506115a38161225b565b92915050565b6000813590506115b881612272565b92915050565b6000602082840312156115d4576115d3611f69565b5b60006115e28482850161156a565b91505092915050565b6000806040838503121561160257611601611f69565b5b60006116108582860161156a565b92505060206116218582860161156a565b9150509250929050565b60008060006060848603121561164457611643611f69565b5b60006116528682870161156a565b93505060206116638682870161156a565b92505060406116748682870161157f565b9150509250925092565b6000806040838503121561169557611694611f69565b5b60006116a38582860161156a565b92505060206116b48582860161157f565b9150509250929050565b6000806000606084860312156116d7576116d6611f69565b5b60006116e58682870161157f565b93505060206116f6868287016115a9565b925050604061170786828701611594565b9150509250925092565b6000806040838503121561172857611727611f69565b5b6000611736858286016115a9565b925050602061174785828601611594565b9150509250929050565b61175a81611e12565b82525050565b61176981611e24565b82525050565b600061177a82611b70565b6117848185611b7b565b9350611794818560208601611e77565b61179d81611f6e565b840191505092915050565b60006117b5602383611b7b565b91506117c082611f8c565b604082019050919050565b60006117d8602683611b7b565b91506117e382611fdb565b604082019050919050565b60006117fb602283611b7b565b91506118068261202a565b604082019050919050565b600061181e602683611b7b565b915061182982612079565b604082019050919050565b6000611841602883611b7b565b915061184c826120c8565b604082019050919050565b6000611864602083611b7b565b915061186f82612117565b602082019050919050565b6000611887602583611b7b565b915061189282612140565b604082019050919050565b60006118aa602483611b7b565b91506118b58261218f565b604082019050919050565b60006118cd602583611b7b565b91506118d8826121de565b604082019050919050565b6118ec81611e50565b82525050565b6118fb81611e5a565b82525050565b61190a81611e6a565b82525050565b60006020820190506119256000830184611751565b92915050565b60006020820190506119406000830184611760565b92915050565b60006020820190508181036000830152611960818461176f565b905092915050565b60006060820190508181036000830152611982818661176f565b90506119916020830185611751565b61199e60408301846118e3565b949350505050565b600060408201905081810360008301526119c0818561176f565b90506119cf60208301846118e3565b9392505050565b600060208201905081810360008301526119ef816117a8565b9050919050565b60006020820190508181036000830152611a0f816117cb565b9050919050565b60006020820190508181036000830152611a2f816117ee565b9050919050565b60006020820190508181036000830152611a4f81611811565b9050919050565b60006020820190508181036000830152611a6f81611834565b9050919050565b60006020820190508181036000830152611a8f81611857565b9050919050565b60006020820190508181036000830152611aaf8161187a565b9050919050565b60006020820190508181036000830152611acf8161189d565b9050919050565b60006020820190508181036000830152611aef816118c0565b9050919050565b6000602082019050611b0b60008301846118e3565b92915050565b6000602082019050611b2660008301846118f2565b92915050565b6000602082019050611b416000830184611901565b92915050565b6000604082019050611b5c6000830185611901565b611b6960208301846118f2565b9392505050565b600081519050919050565b600082825260208201905092915050565b6000611b9782611e50565b9150611ba283611e50565b9250827fffffffffffffffffffffffffffffffffffffffffffffffffffffffffffffffff03821115611bd757611bd6611edc565b5b828201905092915050565b6000611bed82611e50565b9150611bf883611e50565b925082611c0857611c07611f0b565b5b828204905092915050565b6000808291508390505b6001851115611c5d57808604811115611c3957611c38611edc565b5b6001851615611c485780820291505b8081029050611c5685611f7f565b9450611c1d565b94509492505050565b6000611c7182611e50565b9150611c7c83611e50565b9250611ca97fffffffffffffffffffffffffffffffffffffffffffffffffffffffffffffffff8484611cb1565b905092915050565b600082611cc15760019050611d7d565b81611ccf5760009050611d7d565b8160018114611ce55760028114611cef57611d1e565b6001915050611d7d565b60ff841115611d0157611d00611edc565b5b8360020a915084821115611d1857611d17611edc565b5b50611d7d565b5060208310610133831016604e8410600b8410161715611d535782820a905083811115611d4e57611d4d611edc565b5b611d7d565b611d608484846001611c13565b92509050818404811115611d7757611d76611edc565b5b81810290505b9392505050565b6000611d8f82611e50565b9150611d9a83611e50565b9250817fffffffffffffffffffffffffffffffffffffffffffffffffffffffffffffffff0483118215151615611dd357611dd2611edc565b5b828202905092915050565b6000611de982611e50565b9150611df483611e50565b925082821015611e0757611e06611edc565b5b828203905092915050565b6000611e1d82611e30565b9050919050565b60008115159050919050565b600073ffffffffffffffffffffffffffffffffffffffff82169050919050565b6000819050919050565b600063ffffffff82169050919050565b600060ff82169050919050565b60005b83811015611e95578082015181840152602081019050611e7a565b83811115611ea4576000848401525b50505050565b60006002820490506001821680611ec257607f821691505b60208210811415611ed657611ed5611f3a565b5b50919050565b7f4e487b7100000000000000000000000000000000000000000000000000000000600052601160045260246000fd5b7f4e487b7100000000000000000000000000000000000000000000000000000000600052601260045260246000fd5b7f4e487b7100000000000000000000000000000000000000000000000000000000600052602260045260246000fd5b600080fd5b6000601f19601f8301169050919050565b60008160011c9050919050565b7f45524332303a207472616e7366657220746f20746865207a65726f206164647260008201527f6573730000000000000000000000000000000000000000000000000000000000602082015250565b7f4f776e61626c653a206e6577206f776e657220697320746865207a65726f206160008201527f6464726573730000000000000000000000000000000000000000000000000000602082015250565b7f45524332303a20617070726f766520746f20746865207a65726f20616464726560008201527f7373000000000000000000000000000000000000000000000000000000000000602082015250565b7f45524332303a207472616e7366657220616d6f756e742065786365656473206260008201527f616c616e63650000000000000000000000000000000000000000000000000000602082015250565b7f45524332303a207472616e7366657220616d6f756e742065786365656473206160008201527f6c6c6f77616e6365000000000000000000000000000000000000000000000000602082015250565b7f4f776e61626c653a2063616c6c6572206973206e6f7420746865206f776e6572600082015250565b7f45524332303a207472616e736665722066726f6d20746865207a65726f20616460008201527f6472657373000000000000000000000000000000000000000000000000000000602082015250565b7f45524332303a20617070726f76652066726f6d20746865207a65726f2061646460008201527f7265737300000000000000000000000000000000000000000000000000000000602082015250565b7f45524332303a2064656372656173656420616c6c6f77616e63652062656c6f7760008201527f207a65726f000000000000000000000000000000000000000000000000000000602082015250565b61223681611e12565b811461224157600080fd5b50565b61224d81611e50565b811461225857600080fd5b50565b61226481611e5a565b811461226f57600080fd5b50565b61227b81611e6a565b811461228657600080fd5b5056fea2646970667358221220fb4da6f2bfd4373c65a7d99f6f01a8109b48575cd9194f0453468dc2195caae564736f6c63430008070033",
  "linkReferences": {},
  "deployedLinkReferences": {}
}